{
  "contractName": "Certificate",
  "abi": [
    {
      "inputs": [],
      "payable": true,
      "stateMutability": "payable",
      "type": "constructor"
    },
    {
      "constant": false,
      "inputs": [
        {
          "name": "IssuedBy",
          "type": "address"
        },
        {
          "name": "PublicKey",
          "type": "string"
        },
        {
          "name": "DeviceName",
          "type": "string"
        },
        {
          "name": "MAC",
          "type": "string"
        },
        {
          "name": "ArbitraryData",
          "type": "string"
        }
      ],
      "name": "AddCertificate",
      "outputs": [
        {
          "name": "",
          "type": "uint256"
        }
      ],
      "payable": false,
      "stateMutability": "nonpayable",
      "type": "function"
    },
    {
      "constant": false,
      "inputs": [
        {
          "name": "CertificateId",
          "type": "uint256"
        }
      ],
      "name": "DeActivateCertificate",
      "outputs": [],
      "payable": false,
      "stateMutability": "nonpayable",
      "type": "function"
    },
    {
      "constant": true,
      "inputs": [
        {
          "name": "_Id",
          "type": "uint256"
        }
      ],
      "name": "GetCertificate",
      "outputs": [
        {
          "name": "",
          "type": "address"
        },
        {
          "name": "",
          "type": "string"
        },
        {
          "name": "",
          "type": "string"
        },
        {
          "name": "",
          "type": "string"
        },
        {
          "name": "",
          "type": "string"
        }
      ],
      "payable": false,
      "stateMutability": "view",
      "type": "function"
    }
  ],
  "bytecode": "0x60806040526001600255336000806101000a81548173ffffffffffffffffffffffffffffffffffffffff021916908373ffffffffffffffffffffffffffffffffffffffff160217905550610aa2806100586000396000f300608060405260043610610057576000357c0100000000000000000000000000000000000000000000000000000000900463ffffffff1680633e34e1291461005c5780634ab20a9a14610279578063b83c575b146103e8575b600080fd5b34801561006857600080fd5b5061008760048036038101908080359060200190929190505050610415565b604051808673ffffffffffffffffffffffffffffffffffffffff1673ffffffffffffffffffffffffffffffffffffffff16815260200180602001806020018060200180602001858103855289818151815260200191508051906020019080838360005b838110156101055780820151818401526020810190506100ea565b50505050905090810190601f1680156101325780820380516001836020036101000a031916815260200191505b50858103845288818151815260200191508051906020019080838360005b8381101561016b578082015181840152602081019050610150565b50505050905090810190601f1680156101985780820380516001836020036101000a031916815260200191505b50858103835287818151815260200191508051906020019080838360005b838110156101d15780820151818401526020810190506101b6565b50505050905090810190601f1680156101fe5780820380516001836020036101000a031916815260200191505b50858103825286818151815260200191508051906020019080838360005b8381101561023757808201518184015260208101905061021c565b50505050905090810190601f1680156102645780820380516001836020036101000a031916815260200191505b50995050505050505050505060405180910390f35b34801561028557600080fd5b506103d2600480360381019080803573ffffffffffffffffffffffffffffffffffffffff169060200190929190803590602001908201803590602001908080601f0160208091040260200160405190810160405280939291908181526020018383808284378201915050505050509192919290803590602001908201803590602001908080601f0160208091040260200160405190810160405280939291908181526020018383808284378201915050505050509192919290803590602001908201803590602001908080601f0160208091040260200160405190810160405280939291908181526020018383808284378201915050505050509192919290803590602001908201803590602001908080601f0160208091040260200160405190810160405280939291908181526020018383808284378201915050505050509192919290505050610765565b6040518082815260200191505060405180910390f35b3480156103f457600080fd5b5061041360048036038101908080359060200190929190505050610931565b005b6000606080606080600115156001600088815260200190815260200160002060000160009054906101000a900460ff16151514151561045357600080fd5b6001600087815260200190815260200160002060020160009054906101000a900473ffffffffffffffffffffffffffffffffffffffff166001600088815260200190815260200160002060030160016000898152602001908152602001600020600401600160008a8152602001908152602001600020600501600160008b8152602001908152602001600020600601838054600181600116156101000203166002900480601f0160208091040260200160405190810160405280929190818152602001828054600181600116156101000203166002900480156105775780601f1061054c57610100808354040283529160200191610577565b820191906000526020600020905b81548152906001019060200180831161055a57829003601f168201915b50505050509350828054600181600116156101000203166002900480601f0160208091040260200160405190810160405280929190818152602001828054600181600116156101000203166002900480156106135780601f106105e857610100808354040283529160200191610613565b820191906000526020600020905b8154815290600101906020018083116105f657829003601f168201915b50505050509250818054600181600116156101000203166002900480601f0160208091040260200160405190810160405280929190818152602001828054600181600116156101000203166002900480156106af5780601f10610684576101008083540402835291602001916106af565b820191906000526020600020905b81548152906001019060200180831161069257829003601f168201915b50505050509150808054600181600116156101000203166002900480601f01602080910402602001604051908101604052809291908181526020018280546001816001161561010002031660029004801561074b5780601f106107205761010080835404028352916020019161074b565b820191906000526020600020905b81548152906001019060200180831161072e57829003601f168201915b505050505090509450945094509450945091939590929450565b60003373ffffffffffffffffffffffffffffffffffffffff166000809054906101000a900473ffffffffffffffffffffffffffffffffffffffff1673ffffffffffffffffffffffffffffffffffffffff161415156107c257600080fd5b60e06040519081016040528060011515815260200160025481526020018773ffffffffffffffffffffffffffffffffffffffff1681526020018681526020018581526020018481526020018381525060016000600254815260200190815260200160002060008201518160000160006101000a81548160ff0219169083151502179055506020820151816001015560408201518160020160006101000a81548173ffffffffffffffffffffffffffffffffffffffff021916908373ffffffffffffffffffffffffffffffffffffffff16021790555060608201518160030190805190602001906108b39291906109d1565b5060808201518160040190805190602001906108d09291906109d1565b5060a08201518160050190805190602001906108ed9291906109d1565b5060c082015181600601908051906020019061090a9291906109d1565b50905050600260008154809291906001019190505550600160025403905095945050505050565b3373ffffffffffffffffffffffffffffffffffffffff166000809054906101000a900473ffffffffffffffffffffffffffffffffffffffff1673ffffffffffffffffffffffffffffffffffffffff1614151561098c57600080fd5b600254811115151561099d57600080fd5b600060016000600254815260200190815260200160002060000160006101000a81548160ff02191690831515021790555050565b828054600181600116156101000203166002900490600052602060002090601f016020900481019282601f10610a1257805160ff1916838001178555610a40565b82800160010185558215610a40579182015b82811115610a3f578251825591602001919060010190610a24565b5b509050610a4d9190610a51565b5090565b610a7391905b80821115610a6f576000816000905550600101610a57565b5090565b905600a165627a7a723058206906305bdd1f0de1e9663478cb084a524729142c367e890bb4fa30ff5a3450b40029",
  "source": "pragma solidity ^0.4.0;\n\nimport \"./Root.sol\";\ncontract Certificate {\n\tRoot private RootContract;\n\n\tstruct CertificateArray {\n\t\tbool Active;\n\t\tuint CertificateId;\n\t\taddress IssuedBy;\n\t\tstring PublicKey;\n\t\tstring DeviceName;\n\t\tstring MAC;\n\t\tstring ArbitraryData;\n\t}\n\n\tmapping(uint => CertificateArray) private Certificates;\n\tuint private CertificateCount = 1;\n\n\tconstructor() public payable {\n        RootContract = Root(msg.sender);\n    }\n\n    modifier IsOwner() {\n        require (address(RootContract) == msg.sender);\n        _;\n    }\n\n    function AddCertificate(address IssuedBy, string PublicKey, string DeviceName, string MAC, string ArbitraryData) IsOwner public returns (uint) {\n    \tCertificates[CertificateCount] = CertificateArray(true,\n    \t\tCertificateCount,\n    \t\tIssuedBy,\n    \t\tPublicKey,\n    \t\tDeviceName,\n    \t\tMAC,\n    \t\tArbitraryData);\n    \tCertificateCount++;\n    \treturn CertificateCount - 1;\n    }\n\n    function DeActivateCertificate(uint CertificateId) IsOwner public {\n    \trequire(CertificateId <= CertificateCount);\n    \tCertificates[CertificateCount].Active = false;\n    }\n\n    function GetCertificate(uint _Id) public constant returns (address, string, string, string, string) {\n    \trequire(Certificates[_Id].Active == true);\n    \treturn (Certificates[_Id].IssuedBy, Certificates[_Id].PublicKey, Certificates[_Id].DeviceName, Certificates[_Id].MAC, Certificates[_Id].ArbitraryData);\n    }\n}",
  "sourcePath": "/home/kamal/Desktop/Blockchain-powered-IOT-network/DAPP/contracts/Certificate.sol",
  "compiler": {
    "name": "solc",
    "version": "0.4.24+commit.e67f0147.Emscripten.clang"
  },
  "schemaVersion": "2.0.1",
  "updatedAt": "2018-07-20T09:53:48.981Z"
}