{
  "contractName": "GetPermission",
  "abi": [
    {
      "inputs": [],
      "payable": true,
      "stateMutability": "payable",
      "type": "constructor"
    },
    {
      "constant": true,
      "inputs": [
        {
          "name": "_nodePublicKey",
          "type": "string"
        },
        {
          "name": "_selfPublicKey",
          "type": "string"
        }
      ],
      "name": "ReadPermissionNodeToSelf",
      "outputs": [
        {
          "name": "",
          "type": "string"
        }
      ],
      "payable": false,
      "stateMutability": "view",
      "type": "function"
    },
    {
      "constant": true,
      "inputs": [
        {
          "name": "_nodePublicKey",
          "type": "string"
        }
      ],
      "name": "ReadAllPermissions",
      "outputs": [
        {
          "name": "",
          "type": "string"
        }
      ],
      "payable": false,
      "stateMutability": "view",
      "type": "function"
    },
    {
      "constant": false,
      "inputs": [
        {
          "name": "_nodePublicKey",
          "type": "string"
        },
        {
          "name": "_targetPublicKey",
          "type": "string"
        },
        {
          "name": "_data",
          "type": "string"
        }
      ],
      "name": "AddPermission",
      "outputs": [],
      "payable": false,
      "stateMutability": "nonpayable",
      "type": "function"
    },
    {
      "constant": false,
      "inputs": [
        {
          "name": "_nodePublicKey",
          "type": "string"
        },
        {
          "name": "_targetPublicKey",
          "type": "string"
        },
        {
          "name": "_data",
          "type": "string"
        },
        {
          "name": "_active",
          "type": "bool"
        }
      ],
      "name": "UpdatePermission",
      "outputs": [],
      "payable": false,
      "stateMutability": "nonpayable",
      "type": "function"
    },
    {
      "constant": false,
      "inputs": [
        {
          "name": "_nodePublicKey",
          "type": "string"
        }
      ],
      "name": "SwitchActiveDevice",
      "outputs": [],
      "payable": false,
      "stateMutability": "nonpayable",
      "type": "function"
    }
  ],
  "bytecode": "0x6080604052336000806101000a81548173ffffffffffffffffffffffffffffffffffffffff021916908373ffffffffffffffffffffffffffffffffffffffff16021790555061212b806100536000396000f30060806040526004361061006d576000357c0100000000000000000000000000000000000000000000000000000000900463ffffffff168063084bd4e514610072578063116b7699146101735780636a3138c71461026857806379f4562b1461039057806396ccac7314610472575b600080fd5b34801561007e57600080fd5b50610171600480360381019080803590602001908201803590602001908080601f0160208091040260200160405190810160405280939291908181526020018383808284378201915050505050509192919290803590602001908201803590602001908080601f0160208091040260200160405190810160405280939291908181526020018383808284378201915050505050509192919290803590602001908201803590602001908080601f01602080910402602001604051908101604052809392919081815260200183838082843782019150505050505091929192908035151590602001909291905050506104db565b005b34801561017f57600080fd5b50610266600480360381019080803590602001908201803590602001908080601f0160208091040260200160405190810160405280939291908181526020018383808284378201915050505050509192919290803590602001908201803590602001908080601f0160208091040260200160405190810160405280939291908181526020018383808284378201915050505050509192919290803590602001908201803590602001908080601f0160208091040260200160405190810160405280939291908181526020018383808284378201915050505050509192919290505050610e2b565b005b34801561027457600080fd5b50610315600480360381019080803590602001908201803590602001908080601f0160208091040260200160405190810160405280939291908181526020018383808284378201915050505050509192919290803590602001908201803590602001908080601f016020809104026020016040519081016040528093929190818152602001838380828437820191505050505050919291929050505061122d565b6040518080602001828103825283818151815260200191508051906020019080838360005b8381101561035557808201518184015260208101905061033a565b50505050905090810190601f1680156103825780820380516001836020036101000a031916815260200191505b509250505060405180910390f35b34801561039c57600080fd5b506103f7600480360381019080803590602001908201803590602001908080601f0160208091040260200160405190810160405280939291908181526020018383808284378201915050505050509192919290505050611532565b6040518080602001828103825283818151815260200191508051906020019080838360005b8381101561043757808201518184015260208101905061041c565b50505050905090810190601f1680156104645780820380516001836020036101000a031916815260200191505b509250505060405180910390f35b34801561047e57600080fd5b506104d9600480360381019080803590602001908201803590602001908080601f0160208091040260200160405190810160405280939291908181526020018383808284378201915050505050509192919290505050611af4565b005b6104e3611ff9565b60003373ffffffffffffffffffffffffffffffffffffffff166000809054906101000a900473ffffffffffffffffffffffffffffffffffffffff1673ffffffffffffffffffffffffffffffffffffffff1614151561054057600080fd5b600115156001876040518082805190602001908083835b60208310151561057c5780518252602082019150602081019050602083039250610557565b6001836020036101000a038019825116818451168082178552505050505050905001915050908152602001604051809103902060000160009054906101000a900460ff1615151415156105ce57600080fd5b6107496001876040518082805190602001908083835b60208310151561060957805182526020820191506020810190506020830392506105e4565b6001836020036101000a0380198251168184511680821785525050505050509050019150509081526020016040518091039020600101866040518082805190602001908083835b6020831015156106755780518252602082019150602081019050602083039250610650565b6001836020036101000a03801982511681845116808217855250505050505090500191505090815260200160405180910390206003018054600181600116156101000203166002900480601f01602080910402602001604051908101604052809291908181526020018280546001816001161561010002031660029004801561073f5780601f106107145761010080835404028352916020019161073f565b820191906000526020600020905b81548152906001019060200180831161072257829003601f168201915b5050505050611cd1565b15610af95760806040519081016040528084151581526020016001886040518082805190602001908083835b60208310151561079a5780518252602082019150602081019050602083039250610775565b6001836020036101000a0380198251168184511680821785525050505050509050019150509081526020016040518091039020600301548152602001868152602001858152509150816001876040518082805190602001908083835b60208310151561081b57805182526020820191506020810190506020830392506107f6565b6001836020036101000a0380198251168184511680821785525050505050509050019150509081526020016040518091039020600101866040518082805190602001908083835b6020831015156108875780518252602082019150602081019050602083039250610862565b6001836020036101000a038019825116818451168082178552505050505050905001915050908152602001604051809103902060008201518160000160006101000a81548160ff021916908315150217905550602082015181600101556040820151816002019080519060200190610900929190612024565b50606082015181600301908051906020019061091d929190612024565b50905050816001876040518082805190602001908083835b60208310151561095a5780518252602082019150602081019050602083039250610935565b6001836020036101000a038019825116818451168082178552505050505050905001915050908152602001604051809103902060020160006001896040518082805190602001908083835b6020831015156109ca57805182526020820191506020810190506020830392506109a5565b6001836020036101000a038019825116818451168082178552505050505050905001915050908152602001604051809103902060030154815260200190815260200160002060008201518160000160006101000a81548160ff021916908315150217905550602082015181600101556040820151816002019080519060200190610a55929190612024565b506060820151816003019080519060200190610a72929190612024565b509050506001866040518082805190602001908083835b602083101515610aae5780518252602082019150602081019050602083039250610a89565b6001836020036101000a038019825116818451168082178552505050505050905001915050908152602001604051809103902060030160008154809291906001019190505550610e23565b6001866040518082805190602001908083835b602083101515610b315780518252602082019150602081019050602083039250610b0c565b6001836020036101000a0380198251168184511680821785525050505050509050019150509081526020016040518091039020600101856040518082805190602001908083835b602083101515610b9d5780518252602082019150602081019050602083039250610b78565b6001836020036101000a03801982511681845116808217855250505050505090500191505090815260200160405180910390206001015490506080604051908101604052808415158152602001828152602001868152602001858152509150816001876040518082805190602001908083835b602083101515610c355780518252602082019150602081019050602083039250610c10565b6001836020036101000a0380198251168184511680821785525050505050509050019150509081526020016040518091039020600101866040518082805190602001908083835b602083101515610ca15780518252602082019150602081019050602083039250610c7c565b6001836020036101000a038019825116818451168082178552505050505050905001915050908152602001604051809103902060008201518160000160006101000a81548160ff021916908315150217905550602082015181600101556040820151816002019080519060200190610d1a929190612024565b506060820151816003019080519060200190610d37929190612024565b50905050816001876040518082805190602001908083835b602083101515610d745780518252602082019150602081019050602083039250610d4f565b6001836020036101000a0380198251168184511680821785525050505050509050019150509081526020016040518091039020600201600083815260200190815260200160002060008201518160000160006101000a81548160ff021916908315150217905550602082015181600101556040820151816002019080519060200190610e01929190612024565b506060820151816003019080519060200190610e1e929190612024565b509050505b505050505050565b610e33611ff9565b610e3b6120a4565b3373ffffffffffffffffffffffffffffffffffffffff166000809054906101000a900473ffffffffffffffffffffffffffffffffffffffff1673ffffffffffffffffffffffffffffffffffffffff16141515610e9657600080fd5b600015156001866040518082805190602001908083835b602083101515610ed25780518252602082019150602081019050602083039250610ead565b6001836020036101000a038019825116818451168082178552505050505050905001915050908152602001604051809103902060000160009054906101000a900460ff161515141515610f2457600080fd5b60806040519081016040528060011515815260200160008152602001858152602001848152509150604080519081016040528060011515815260200160018152509050806001866040518082805190602001908083835b602083101515610fa05780518252602082019150602081019050602083039250610f7b565b6001836020036101000a038019825116818451168082178552505050505050905001915050908152602001604051809103902060008201518160000160006101000a81548160ff02191690831515021790555060208201518160030155905050816001866040518082805190602001908083835b6020831015156110395780518252602082019150602081019050602083039250611014565b6001836020036101000a0380198251168184511680821785525050505050509050019150509081526020016040518091039020600101856040518082805190602001908083835b6020831015156110a55780518252602082019150602081019050602083039250611080565b6001836020036101000a038019825116818451168082178552505050505050905001915050908152602001604051809103902060008201518160000160006101000a81548160ff02191690831515021790555060208201518160010155604082015181600201908051906020019061111e929190612024565b50606082015181600301908051906020019061113b929190612024565b50905050816001866040518082805190602001908083835b6020831015156111785780518252602082019150602081019050602083039250611153565b6001836020036101000a0380198251168184511680821785525050505050509050019150509081526020016040518091039020600201600080815260200190815260200160002060008201518160000160006101000a81548160ff021916908315150217905550602082015181600101556040820151816002019080519060200190611205929190612024565b506060820151816003019080519060200190611222929190612024565b509050505050505050565b6060600115156001846040518082805190602001908083835b60208310151561126b5780518252602082019150602081019050602083039250611246565b6001836020036101000a038019825116818451168082178552505050505050905001915050908152602001604051809103902060000160009054906101000a900460ff1615151415156112bd57600080fd5b600115156001846040518082805190602001908083835b6020831015156112f957805182526020820191506020810190506020830392506112d4565b6001836020036101000a0380198251168184511680821785525050505050509050019150509081526020016040518091039020600101836040518082805190602001908083835b6020831015156113655780518252602082019150602081019050602083039250611340565b6001836020036101000a038019825116818451168082178552505050505050905001915050908152602001604051809103902060000160009054906101000a900460ff1615151415156113b757600080fd5b6001836040518082805190602001908083835b6020831015156113ef57805182526020820191506020810190506020830392506113ca565b6001836020036101000a0380198251168184511680821785525050505050509050019150509081526020016040518091039020600101826040518082805190602001908083835b60208310151561145b5780518252602082019150602081019050602083039250611436565b6001836020036101000a03801982511681845116808217855250505050505090500191505090815260200160405180910390206003018054600181600116156101000203166002900480601f0160208091040260200160405190810160405280929190818152602001828054600181600116156101000203166002900480156115255780601f106114fa57610100808354040283529160200191611525565b820191906000526020600020905b81548152906001019060200180831161150857829003601f168201915b5050505050905092915050565b606060006060600080600115156001876040518082805190602001908083835b6020831015156115775780518252602082019150602081019050602083039250611552565b6001836020036101000a038019825116818451168082178552505050505050905001915050908152602001604051809103902060000160009054906101000a900460ff1615151415156115c957600080fd5b6115d286611dbf565b93506040805190810160405280600281526020017f7b220000000000000000000000000000000000000000000000000000000000008152509250600084141561161d57829450611aeb565b60009150600090505b6001866040518082805190602001908083835b60208310151561165e5780518252602082019150602081019050602083039250611639565b6001836020036101000a038019825116818451168082178552505050505050905001915050908152602001604051809103902060030154811015611a8d57600115156001876040518082805190602001908083835b6020831015156116d857805182526020820191506020810190506020830392506116b3565b6001836020036101000a0380198251168184511680821785525050505050509050019150509081526020016040518091039020600201600083815260200190815260200160002060000160009054906101000a900460ff1615151415611a805761187561185e6001886040518082805190602001908083835b6020831015156117765780518252602082019150602081019050602083039250611751565b6001836020036101000a038019825116818451168082178552505050505050905001915050908152602001604051809103902060020160008481526020019081526020016000206002018054600181600116156101000203166002900480601f0160208091040260200160405190810160405280929190818152602001828054600181600116156101000203166002900480156118545780601f1061182957610100808354040283529160200191611854565b820191906000526020600020905b81548152906001019060200180831161183757829003601f168201915b5050505050611efe565b61186785611efe565b611f2c90919063ffffffff16565b92506118cf6118b86040805190810160405280600281526020017f223a000000000000000000000000000000000000000000000000000000000000815250611efe565b6118c185611efe565b611f2c90919063ffffffff16565b9250611a0e6119f76001886040518082805190602001908083835b60208310151561190f57805182526020820191506020810190506020830392506118ea565b6001836020036101000a038019825116818451168082178552505050505050905001915050908152602001604051809103902060020160008481526020019081526020016000206003018054600181600116156101000203166002900480601f0160208091040260200160405190810160405280929190818152602001828054600181600116156101000203166002900480156119ed5780601f106119c2576101008083540402835291602001916119ed565b820191906000526020600020905b8154815290600101906020018083116119d057829003601f168201915b5050505050611efe565b611a0085611efe565b611f2c90919063ffffffff16565b9250818060010192505083821415611a2557611a8d565b611a7d611a666040805190810160405280600181526020017f2c00000000000000000000000000000000000000000000000000000000000000815250611efe565b611a6f85611efe565b611f2c90919063ffffffff16565b92505b8080600101915050611626565b611ae5611ace6040805190810160405280600181526020017f7d00000000000000000000000000000000000000000000000000000000000000815250611efe565b611ad785611efe565b611f2c90919063ffffffff16565b92508294505b50505050919050565b3373ffffffffffffffffffffffffffffffffffffffff166000809054906101000a900473ffffffffffffffffffffffffffffffffffffffff1673ffffffffffffffffffffffffffffffffffffffff16141515611b4f57600080fd5b60006001826040518082805190602001908083835b602083101515611b895780518252602082019150602081019050602083039250611b64565b6001836020036101000a038019825116818451168082178552505050505050905001915050908152602001604051809103902060030154111515611bcc57600080fd5b6001816040518082805190602001908083835b602083101515611c045780518252602082019150602081019050602083039250611bdf565b6001836020036101000a038019825116818451168082178552505050505050905001915050908152602001604051809103902060000160009054906101000a900460ff16156001826040518082805190602001908083835b602083101515611c815780518252602082019150602081019050602083039250611c5c565b6001836020036101000a038019825116818451168082178552505050505050905001915050908152602001604051809103902060000160006101000a81548160ff02191690831515021790555050565b6000606060206040519081016040528060008152509050806040518082805190602001908083835b602083101515611d1e5780518252602082019150602081019050602083039250611cf9565b6001836020036101000a038019825116818451168082178552505050505050905001915050604051809103902060001916836040518082805190602001908083835b602083101515611d855780518252602082019150602081019050602083039250611d60565b6001836020036101000a03801982511681845116808217855250505050505090500191505060405180910390206000191614915050919050565b6000806000809150600090505b6001846040518082805190602001908083835b602083101515611e045780518252602082019150602081019050602083039250611ddf565b6001836020036101000a038019825116818451168082178552505050505050905001915050908152602001604051809103902060030154811015611ef457600115156001856040518082805190602001908083835b602083101515611e7e5780518252602082019150602081019050602083039250611e59565b6001836020036101000a0380198251168184511680821785525050505050509050019150509081526020016040518091039020600201600083815260200190815260200160002060000160009054906101000a900460ff1615151415611ee75781806001019250505b8080600101915050611dcc565b8192505050919050565b611f066120c0565b600060208301905060408051908101604052808451815260200182815250915050919050565b606080600083600001518560000151016040519080825280601f01601f191660200182016040528015611f6e5781602001602082028038833980820191505090505b509150602082019050611f8a8186602001518760000151611fae565b611fa38560000151820185602001518660000151611fae565b819250505092915050565b60005b602082101515611fd65782518452602084019350602083019250602082039150611fb1565b6001826020036101000a0390508019835116818551168181178652505050505050565b6080604051908101604052806000151581526020016000815260200160608152602001606081525090565b828054600181600116156101000203166002900490600052602060002090601f016020900481019282601f1061206557805160ff1916838001178555612093565b82800160010185558215612093579182015b82811115612092578251825591602001919060010190612077565b5b5090506120a091906120da565b5090565b6040805190810160405280600015158152602001600081525090565b604080519081016040528060008152602001600081525090565b6120fc91905b808211156120f85760008160009055506001016120e0565b5090565b905600a165627a7a72305820b77cfb1e34e618a713d72a9700406adf6d2550cd90734771a7f9b65d33c3a3390029",
  "source": "pragma solidity ^0.4.0;\n\nimport \"./Root.sol\";\nimport \"./strings.sol\";//Open-Source library\ncontract GetPermission {\n    using strings for *;\n    Root private RootContract;\n    \n    struct PermissionData {\n        bool Active;//Permissions might be switched off or \"deleted\"\n        uint Id;\n        string PublicKey;\n        string Arbitrary_Data;//JSON String {} for all get Permissions\n    }\n    \n    struct DevicePermissions {\n        bool Active;//Permissions might be switched off or deleted\n        mapping (string => PermissionData) Permissions;\n        mapping (uint => PermissionData) Devices;//keep track of all devices in a sequential manner\n        uint DevicesCount;\n    }\n    \n    //The public key of each device is used as the key to map to its permissions\n    mapping(string => DevicePermissions) private GetPermissions;\n    \n    constructor() public payable {\n        RootContract = Root(msg.sender);\n    }\n    \n    modifier IsOwner() {\n        require (address(RootContract) == msg.sender);\n        _;\n    }\n    \n    //Anyone can call this function to read permissions of one node to another\n    //returns the data of only the requested node\n    function ReadPermissionNodeToSelf(string _nodePublicKey, string _selfPublicKey) public constant returns (string){\n        require(GetPermissions[_nodePublicKey].Active == true);\n        require(GetPermissions[_nodePublicKey].Permissions[_selfPublicKey].Active == true);\n        return GetPermissions[_nodePublicKey].Permissions[_selfPublicKey].Arbitrary_Data;\n    }\n    \n    function GetCountOfActivePermissions(string _nodePublicKey) private constant returns (uint){\n        uint count = 0;\n        for (uint i=0; i < GetPermissions[_nodePublicKey].DevicesCount; i++){\n            if (GetPermissions[_nodePublicKey].Devices[i].Active == true){\n                count++;\n            }\n        }\n        return count;\n    }\n    \n    //Anyone can call this function to read permissions of one node to another\n    //returns all data related to the input public key\n    function ReadAllPermissions(string _nodePublicKey) public constant returns (string){\n        require(GetPermissions[_nodePublicKey].Active == true);\n        uint count = GetCountOfActivePermissions(_nodePublicKey);\n        string memory PermissionsData = '{\"';\n        if (count == 0) return PermissionsData;\n        uint addCount = 0;\n        for (uint i=0; i < GetPermissions[_nodePublicKey].DevicesCount; i++){\n            if (GetPermissions[_nodePublicKey].Devices[i].Active == true){\n                PermissionsData = PermissionsData.toSlice().concat(GetPermissions[_nodePublicKey].Devices[i].PublicKey.toSlice());\n                PermissionsData = PermissionsData.toSlice().concat('\":'.toSlice());\n                PermissionsData = PermissionsData.toSlice().concat(GetPermissions[_nodePublicKey].Devices[i].Arbitrary_Data.toSlice());\n                addCount++;\n                if (addCount == count) break;//we found all active permissions\n                else PermissionsData = PermissionsData.toSlice().concat(\",\".toSlice());\n            }\n        }\n        PermissionsData = PermissionsData.toSlice().concat(\"}\".toSlice());\n        return PermissionsData;\n    }\n    \n    //Can only be called by the root address\n    //Is only executed to add a new device to permission list\n    //Can only be done through root contract\n    function AddPermission(string _nodePublicKey,string _targetPublicKey, string _data) IsOwner public {\n        require(GetPermissions[_nodePublicKey].Active == false);\n        PermissionData memory PD = PermissionData(true, 0, _targetPublicKey, _data);\n        DevicePermissions memory DP = DevicePermissions({Active: true, DevicesCount: 1});\n        GetPermissions[_nodePublicKey] = DP;\n        GetPermissions[_nodePublicKey].Permissions[_targetPublicKey] = PD;\n        GetPermissions[_nodePublicKey].Devices[0] = PD;\n    }\n    \n    //check if input is not an empty string\n    function DoesPermissionExist(string _data) private pure returns (bool){\n        string memory empty = \"\";\n        return keccak256(_data) == keccak256(empty);\n    }\n    \n    //Update one of the permissions in the Permissioned device\n    //Can only be done through Root contract\n    //Can also be used to add a permission to the Permissioned device\n    function UpdatePermission(string _nodePublicKey,string _targetPublicKey, string _data, bool _active) IsOwner public {\n        require(GetPermissions[_nodePublicKey].Active == true);\n        if (DoesPermissionExist(GetPermissions[_nodePublicKey].Permissions[_targetPublicKey].Arbitrary_Data)){\n            PermissionData memory PD = PermissionData(_active,\n                GetPermissions[_nodePublicKey].DevicesCount,\n                _targetPublicKey, \n                _data);\n            GetPermissions[_nodePublicKey].Permissions[_targetPublicKey] = PD;\n            GetPermissions[_nodePublicKey].Devices[GetPermissions[_nodePublicKey].DevicesCount] = PD;\n            GetPermissions[_nodePublicKey].DevicesCount++;\n        }\n        else{\n            uint deviceId = GetPermissions[_nodePublicKey].Permissions[_targetPublicKey].Id;\n            PD = PermissionData(_active,\n                deviceId,\n                _targetPublicKey, \n                _data);\n            GetPermissions[_nodePublicKey].Permissions[_targetPublicKey] = PD;\n            GetPermissions[_nodePublicKey].Devices[deviceId] = PD;\n        }\n    }\n    \n    //Turn a permissioned device on or off\n    //Can only be done through Root contract\n    function SwitchActiveDevice(string _nodePublicKey) IsOwner public {\n        require(GetPermissions[_nodePublicKey].DevicesCount > 0);\n        GetPermissions[_nodePublicKey].Active = !GetPermissions[_nodePublicKey].Active;\n    }\n}",
  "sourcePath": "/home/kamal/Desktop/Blockchain-powered-IOT-network/DAPP/contracts/GetPermission.sol",
  "compiler": {
    "name": "solc",
    "version": "0.4.24+commit.e67f0147.Emscripten.clang"
  },
  "schemaVersion": "2.0.1",
  "updatedAt": "2018-07-20T09:53:48.989Z"
}