{
  "contractName": "HashedData",
  "abi": [
    {
      "constant": false,
      "inputs": [
        {
          "name": "_hash",
          "type": "bytes32"
        },
        {
          "name": "_writer_Id",
          "type": "uint256"
        },
        {
          "name": "_writer_Type",
          "type": "string"
        },
        {
          "name": "_data",
          "type": "string"
        }
      ],
      "name": "InsertHashData",
      "outputs": [],
      "payable": false,
      "stateMutability": "nonpayable",
      "type": "function"
    },
    {
      "constant": true,
      "inputs": [
        {
          "name": "_hash",
          "type": "bytes32"
        }
      ],
      "name": "GetHashData",
      "outputs": [
        {
          "name": "",
          "type": "uint256"
        },
        {
          "name": "",
          "type": "string"
        },
        {
          "name": "",
          "type": "string"
        }
      ],
      "payable": false,
      "stateMutability": "view",
      "type": "function"
    }
  ],
  "bytecode": "0x608060405234801561001057600080fd5b50610591806100206000396000f30060806040526004361061004c576000357c0100000000000000000000000000000000000000000000000000000000900463ffffffff168063944e232914610051578063d3d6c76214610118575b600080fd5b34801561005d57600080fd5b50610116600480360381019080803560001916906020019092919080359060200190929190803590602001908201803590602001908080601f0160208091040260200160405190810160405280939291908181526020018383808284378201915050505050509192919290803590602001908201803590602001908080601f0160208091040260200160405190810160405280939291908181526020018383808284378201915050505050509192919290505050610235565b005b34801561012457600080fd5b5061014760048036038101908080356000191690602001909291905050506102e1565b604051808481526020018060200180602001838103835285818151815260200191508051906020019080838360005b83811015610191578082015181840152602081019050610176565b50505050905090810190601f1680156101be5780820380516001836020036101000a031916815260200191505b50838103825284818151815260200191508051906020019080838360005b838110156101f75780820151818401526020810190506101dc565b50505050905090810190601f1680156102245780820380516001836020036101000a031916815260200191505b509550505050505060405180910390f35b60806040519081016040528060011515815260200184815260200183815260200182815250600080866000191660001916815260200190815260200160002060008201518160000160006101000a81548160ff0219169083151502179055506020820151816001015560408201518160020190805190602001906102ba9291906104c0565b5060608201518160030190805190602001906102d79291906104c0565b5090505050505050565b600060608060011515600080866000191660001916815260200190815260200160002060000160009054906101000a900460ff16151514151561032357600080fd5b60008085600019166000191681526020019081526020016000206001015460008086600019166000191681526020019081526020016000206002016000808760001916600019168152602001908152602001600020600301818054600181600116156101000203166002900480601f0160208091040260200160405190810160405280929190818152602001828054600181600116156101000203166002900480156104105780601f106103e557610100808354040283529160200191610410565b820191906000526020600020905b8154815290600101906020018083116103f357829003601f168201915b50505050509150808054600181600116156101000203166002900480601f0160208091040260200160405190810160405280929190818152602001828054600181600116156101000203166002900480156104ac5780601f10610481576101008083540402835291602001916104ac565b820191906000526020600020905b81548152906001019060200180831161048f57829003601f168201915b505050505090509250925092509193909250565b828054600181600116156101000203166002900490600052602060002090601f016020900481019282601f1061050157805160ff191683800117855561052f565b8280016001018555821561052f579182015b8281111561052e578251825591602001919060010190610513565b5b50905061053c9190610540565b5090565b61056291905b8082111561055e576000816000905550600101610546565b5090565b905600a165627a7a72305820cebe12530120594c63097c385db670717c0acd74c0b590e4465192d0737c63080029",
  "source": "pragma solidity ^0.4.0;\n\ncontract HashedData {\n    //Data would be encrypted with the private key and then hashed.\n    //Using the mapped data we can get the public key and decrypt the data\n    struct MappedData {\n        bool Exists;\n        uint Writer_Id;\n        string Writer_Type;\n        string Arbitrary_Data; //JSON data\n    }\n    \n    //maps the blockchain data to the hash of the original data outside the blockchain\n    mapping(bytes32 => MappedData) Data;\n    \n    //Uses input hash to connect it to the input data\n    function InsertHashData(bytes32 _hash, uint _writer_Id, string _writer_Type, string _data) public {\n        Data[_hash] = MappedData(\n            true, _writer_Id, _writer_Type, _data);\n    }\n    \n    //Uses input hash to retrieve data related to that hash that is stored in the blockchain\n    function GetHashData(bytes32 _hash) public constant returns (uint, string, string){\n        require(Data[_hash].Exists == true);\n        return (Data[_hash].Writer_Id, Data[_hash].Writer_Type, Data[_hash].Arbitrary_Data);\n    }\n}",
  "sourcePath": "/home/kamal/Desktop/Blockchain-powered-IOT-network/DAPP/contracts/HashedData.sol",
  "compiler": {
    "name": "solc",
    "version": "0.4.24+commit.e67f0147.Emscripten.clang"
  },
  "schemaVersion": "2.0.1",
  "updatedAt": "2018-07-23T17:41:08.427Z"
}