{
  "contractName": "InternalGatewayDevice",
  "abi": [
    {
      "inputs": [
        {
          "name": "_id",
          "type": "uint256"
        },
        {
          "name": "_publicKey",
          "type": "string"
        },
        {
          "name": "_data",
          "type": "string"
        },
        {
          "name": "_owner",
          "type": "address"
        }
      ],
      "payable": true,
      "stateMutability": "payable",
      "type": "constructor"
    },
    {
      "anonymous": false,
      "inputs": [
        {
          "indexed": false,
          "name": "_id",
          "type": "uint256"
        }
      ],
      "name": "NodeAdded",
      "type": "event"
    },
    {
      "constant": false,
      "inputs": [
        {
          "name": "_deviceName",
          "type": "string"
        },
        {
          "name": "_mac",
          "type": "string"
        },
        {
          "name": "_publicKey",
          "type": "string"
        },
        {
          "name": "_data",
          "type": "string"
        }
      ],
      "name": "AddNode",
      "outputs": [
        {
          "name": "",
          "type": "uint256"
        }
      ],
      "payable": false,
      "stateMutability": "nonpayable",
      "type": "function"
    },
    {
      "constant": true,
      "inputs": [
        {
          "name": "_id",
          "type": "uint256"
        }
      ],
      "name": "GetNodeDetails",
      "outputs": [
        {
          "name": "",
          "type": "uint256"
        },
        {
          "name": "",
          "type": "string"
        },
        {
          "name": "",
          "type": "string"
        },
        {
          "name": "",
          "type": "string"
        },
        {
          "name": "",
          "type": "string"
        }
      ],
      "payable": false,
      "stateMutability": "view",
      "type": "function"
    },
    {
      "constant": true,
      "inputs": [],
      "name": "GetNodeCount",
      "outputs": [
        {
          "name": "",
          "type": "uint256"
        }
      ],
      "payable": false,
      "stateMutability": "view",
      "type": "function"
    },
    {
      "constant": true,
      "inputs": [],
      "name": "GetDetails",
      "outputs": [
        {
          "name": "",
          "type": "string"
        },
        {
          "name": "",
          "type": "string"
        },
        {
          "name": "",
          "type": "address"
        }
      ],
      "payable": false,
      "stateMutability": "view",
      "type": "function"
    },
    {
      "constant": false,
      "inputs": [
        {
          "name": "_deviceName",
          "type": "string"
        },
        {
          "name": "_mac",
          "type": "string"
        },
        {
          "name": "_publicKey",
          "type": "string"
        },
        {
          "name": "_data",
          "type": "string"
        }
      ],
      "name": "RequestToJoin",
      "outputs": [],
      "payable": false,
      "stateMutability": "nonpayable",
      "type": "function"
    }
  ],
  "bytecode": "0x6080604052604051620013623803806200136283398101806040528101908080519060200190929190805182019291906020018051820192919060200180519060200190929190505050836000819055508260019080519060200190620000689291906200010e565b508160029080519060200190620000819291906200010e565b5080600360006101000a81548173ffffffffffffffffffffffffffffffffffffffff021916908373ffffffffffffffffffffffffffffffffffffffff16021790555033600460006101000a81548173ffffffffffffffffffffffffffffffffffffffff021916908373ffffffffffffffffffffffffffffffffffffffff16021790555050505050620001bd565b828054600181600116156101000203166002900490600052602060002090601f016020900481019282601f106200015157805160ff191683800117855562000182565b8280016001018555821562000182579182015b828111156200018157825182559160200191906001019062000164565b5b50905062000191919062000195565b5090565b620001ba91905b80821115620001b65760008160009055506001016200019c565b5090565b90565b61119580620001cd6000396000f30060806040526004361061006d576000357c0100000000000000000000000000000000000000000000000000000000900463ffffffff16806357d83ba31461007257806370f2a971146101ad578063775a9d83146101d8578063cc2e8cca146103c9578063cd49625f146104f8575b600080fd5b34801561007e57600080fd5b506101ab600480360381019080803590602001908201803590602001908080601f0160208091040260200160405190810160405280939291908181526020018383808284378201915050505050509192919290803590602001908201803590602001908080601f0160208091040260200160405190810160405280939291908181526020018383808284378201915050505050509192919290803590602001908201803590602001908080601f0160208091040260200160405190810160405280939291908181526020018383808284378201915050505050509192919290803590602001908201803590602001908080601f0160208091040260200160405190810160405280939291908181526020018383808284378201915050505050509192919290505050610647565b005b3480156101b957600080fd5b506101c26108ac565b6040518082815260200191505060405180910390f35b3480156101e457600080fd5b506102036004803603810190808035906020019092919050505061096a565b6040518086815260200180602001806020018060200180602001858103855289818151815260200191508051906020019080838360005b8381101561025557808201518184015260208101905061023a565b50505050905090810190601f1680156102825780820380516001836020036101000a031916815260200191505b50858103845288818151815260200191508051906020019080838360005b838110156102bb5780820151818401526020810190506102a0565b50505050905090810190601f1680156102e85780820380516001836020036101000a031916815260200191505b50858103835287818151815260200191508051906020019080838360005b83811015610321578082015181840152602081019050610306565b50505050905090810190601f16801561034e5780820380516001836020036101000a031916815260200191505b50858103825286818151815260200191508051906020019080838360005b8381101561038757808201518184015260208101905061036c565b50505050905090810190601f1680156103b45780820380516001836020036101000a031916815260200191505b50995050505050505050505060405180910390f35b3480156103d557600080fd5b506103de610d28565b6040518080602001806020018473ffffffffffffffffffffffffffffffffffffffff1673ffffffffffffffffffffffffffffffffffffffff168152602001838103835286818151815260200191508051906020019080838360005b83811015610454578082015181840152602081019050610439565b50505050905090810190601f1680156104815780820380516001836020036101000a031916815260200191505b50838103825285818151815260200191508051906020019080838360005b838110156104ba57808201518184015260208101905061049f565b50505050905090810190601f1680156104e75780820380516001836020036101000a031916815260200191505b509550505050505060405180910390f35b34801561050457600080fd5b50610631600480360381019080803590602001908201803590602001908080601f0160208091040260200160405190810160405280939291908181526020018383808284378201915050505050509192919290803590602001908201803590602001908080601f0160208091040260200160405190810160405280939291908181526020018383808284378201915050505050509192919290803590602001908201803590602001908080601f0160208091040260200160405190810160405280939291908181526020018383808284378201915050505050509192919290803590602001908201803590602001908080601f0160208091040260200160405190810160405280939291908181526020018383808284378201915050505050509192919290505050610f4b565b6040518082815260200191505060405180910390f35b600460009054906101000a900473ffffffffffffffffffffffffffffffffffffffff1673ffffffffffffffffffffffffffffffffffffffff1663d76fc2bc600054868686866040518663ffffffff167c01000000000000000000000000000000000000000000000000000000000281526004018086815260200180602001806020018060200180602001858103855289818151815260200191508051906020019080838360005b838110156107095780820151818401526020810190506106ee565b50505050905090810190601f1680156107365780820380516001836020036101000a031916815260200191505b50858103845288818151815260200191508051906020019080838360005b8381101561076f578082015181840152602081019050610754565b50505050905090810190601f16801561079c5780820380516001836020036101000a031916815260200191505b50858103835287818151815260200191508051906020019080838360005b838110156107d55780820151818401526020810190506107ba565b50505050905090810190601f1680156108025780820380516001836020036101000a031916815260200191505b50858103825286818151815260200191508051906020019080838360005b8381101561083b578082015181840152602081019050610820565b50505050905090810190601f1680156108685780820380516001836020036101000a031916815260200191505b509950505050505050505050600060405180830381600087803b15801561088e57600080fd5b505af11580156108a2573d6000803e3d6000fd5b5050505050505050565b60003373ffffffffffffffffffffffffffffffffffffffff16600360009054906101000a900473ffffffffffffffffffffffffffffffffffffffff1673ffffffffffffffffffffffffffffffffffffffff16148061095757503373ffffffffffffffffffffffffffffffffffffffff16600460009054906101000a900473ffffffffffffffffffffffffffffffffffffffff1673ffffffffffffffffffffffffffffffffffffffff16145b151561096257600080fd5b600654905090565b60006060806060806006548610151561098257600080fd5b3373ffffffffffffffffffffffffffffffffffffffff16600360009054906101000a900473ffffffffffffffffffffffffffffffffffffffff1673ffffffffffffffffffffffffffffffffffffffff161480610a2b57503373ffffffffffffffffffffffffffffffffffffffff16600460009054906101000a900473ffffffffffffffffffffffffffffffffffffffff1673ffffffffffffffffffffffffffffffffffffffff16145b1515610a3657600080fd5b60056000878152602001908152602001600020600001546005600088815260200190815260200160002060010160056000898152602001908152602001600020600201600560008a8152602001908152602001600020600301600560008b8152602001908152602001600020600401838054600181600116156101000203166002900480601f016020809104026020016040519081016040528092919081815260200182805460018160011615610100020316600290048015610b3a5780601f10610b0f57610100808354040283529160200191610b3a565b820191906000526020600020905b815481529060010190602001808311610b1d57829003601f168201915b50505050509350828054600181600116156101000203166002900480601f016020809104026020016040519081016040528092919081815260200182805460018160011615610100020316600290048015610bd65780601f10610bab57610100808354040283529160200191610bd6565b820191906000526020600020905b815481529060010190602001808311610bb957829003601f168201915b50505050509250818054600181600116156101000203166002900480601f016020809104026020016040519081016040528092919081815260200182805460018160011615610100020316600290048015610c725780601f10610c4757610100808354040283529160200191610c72565b820191906000526020600020905b815481529060010190602001808311610c5557829003601f168201915b50505050509150808054600181600116156101000203166002900480601f016020809104026020016040519081016040528092919081815260200182805460018160011615610100020316600290048015610d0e5780601f10610ce357610100808354040283529160200191610d0e565b820191906000526020600020905b815481529060010190602001808311610cf157829003601f168201915b505050505090509450945094509450945091939590929450565b60608060003373ffffffffffffffffffffffffffffffffffffffff16600360009054906101000a900473ffffffffffffffffffffffffffffffffffffffff1673ffffffffffffffffffffffffffffffffffffffff161480610dd657503373ffffffffffffffffffffffffffffffffffffffff16600460009054906101000a900473ffffffffffffffffffffffffffffffffffffffff1673ffffffffffffffffffffffffffffffffffffffff16145b1515610de157600080fd5b60016002600360009054906101000a900473ffffffffffffffffffffffffffffffffffffffff16828054600181600116156101000203166002900480601f016020809104026020016040519081016040528092919081815260200182805460018160011615610100020316600290048015610e9d5780601f10610e7257610100808354040283529160200191610e9d565b820191906000526020600020905b815481529060010190602001808311610e8057829003601f168201915b50505050509250818054600181600116156101000203166002900480601f016020809104026020016040519081016040528092919081815260200182805460018160011615610100020316600290048015610f395780601f10610f0e57610100808354040283529160200191610f39565b820191906000526020600020905b815481529060010190602001808311610f1c57829003601f168201915b50505050509150925092509250909192565b60003373ffffffffffffffffffffffffffffffffffffffff16600460009054906101000a900473ffffffffffffffffffffffffffffffffffffffff1673ffffffffffffffffffffffffffffffffffffffff16141515610fa957600080fd5b60a06040519081016040528060065481526020018681526020018581526020018481526020018381525060056000600654815260200190815260200160002060008201518160000155602082015181600101908051906020019061100e9291906110c4565b50604082015181600201908051906020019061102b9291906110c4565b5060608201518160030190805190602001906110489291906110c4565b5060808201518160040190805190602001906110659291906110c4565b509050507f6d6c7890de6244cc4a4b2eba1686287aac49412a2f6c76007d085ff9cd8701ea6006546040518082815260200191505060405180910390a16006600081548092919060010191905055506001600654039050949350505050565b828054600181600116156101000203166002900490600052602060002090601f016020900481019282601f1061110557805160ff1916838001178555611133565b82800160010185558215611133579182015b82811115611132578251825591602001919060010190611117565b5b5090506111409190611144565b5090565b61116691905b8082111561116257600081600090555060010161114a565b5090565b905600a165627a7a72305820fde59259327d25d87a47c588d0fabd76351d906fa7985ee337bcde7a26ef49dc0029",
  "source": "pragma solidity ^0.4.0;\n\nimport \"./Root.sol\";\ncontract InternalGatewayDevice{\n    uint private GatewayId;\n    string private PublicKey;\n    string private Arbitrary_Data;//JSON Data\n    address private Owner;\n    Root private RootContract;\n    \n    struct Node {\n        uint Id;\n        string DeviceName;\n        string MAC;\n        string PublicKey;\n        string NodeData;//JSON Data\n    }\n    \n    //An InternalGatewayDevice is reponsible for being the gateway between devices\n    //not connected to the blockchain and the blockchain itself\n    mapping(uint => Node) private Nodes;\n    uint private NumberOfNodes;\n    \n    event NodeAdded(uint _id);\n    \n    constructor(uint _id, string _publicKey, string _data, address _owner) public payable {\n        GatewayId = _id;\n        PublicKey = _publicKey;\n        Arbitrary_Data = _data;\n        Owner = _owner;\n        RootContract = Root(msg.sender);\n    }\n    \n    //Only the root contract can add nodes to this contract\n    function AddNode(string _deviceName, string _mac, string _publicKey, string _data) public returns (uint){\n        require (address(RootContract) == msg.sender);//can only be done through the root contract\n        Nodes[NumberOfNodes] = Node(\n            NumberOfNodes, _deviceName, _mac, _publicKey, _data);\n        emit NodeAdded(NumberOfNodes);//Send event that a node has been added with its Id\n        NumberOfNodes++;\n        return NumberOfNodes - 1;\n    }\n    \n    //Get the details of a specfic node within this contract\n    function GetNodeDetails(uint _id) public constant returns (uint, string, string, string, string){\n        require(_id < NumberOfNodes);\n        require(Owner == msg.sender || address(RootContract) == msg.sender);\n        return (Nodes[_id].Id, \n            Nodes[_id].DeviceName, \n            Nodes[_id].MAC, \n            Nodes[_id].PublicKey,\n            Nodes[_id].NodeData);\n    }\n\n    //Get Number of Nodes\n    function GetNodeCount() public constant returns(uint) {\n        require(Owner == msg.sender || address(RootContract) == msg.sender);\n        return NumberOfNodes;\n    }\n    \n    //Get the details of this contract\n    function GetDetails() public constant returns (string, string, address){\n        require(Owner == msg.sender || address(RootContract) == msg.sender);\n        return (PublicKey, Arbitrary_Data, Owner);\n    }\n    \n    //A node can request to join this segmented network and be involved in the blockchain\n    //through the InternalGatewayDevice. The request is sent to the root contract and\n    //waits for approval\n    function RequestToJoin(string _deviceName, string _mac, string _publicKey, string _data) public {\n        RootContract.RequestToJoinGateway(GatewayId, _deviceName, _mac, _publicKey, _data);\n    }\n}",
  "sourcePath": "/home/kamal/Desktop/Blockchain-powered-IOT-network/DAPP/contracts/InternalGatewayDevice.sol",
  "compiler": {
    "name": "solc",
    "version": "0.4.24+commit.e67f0147.Emscripten.clang"
  },
  "schemaVersion": "2.0.1",
  "updatedAt": "2018-07-20T09:53:48.994Z"
}