{
  "contractName": "Root",
  "abi": [
    {
      "constant": true,
      "inputs": [],
      "name": "GlobalData",
      "outputs": [
        {
          "name": "",
          "type": "address"
        }
      ],
      "payable": false,
      "stateMutability": "view",
      "type": "function"
    },
    {
      "inputs": [
        {
          "name": "_publicKey",
          "type": "string"
        }
      ],
      "payable": true,
      "stateMutability": "payable",
      "type": "constructor"
    },
    {
      "anonymous": false,
      "inputs": [
        {
          "indexed": false,
          "name": "_id",
          "type": "uint256"
        },
        {
          "indexed": false,
          "name": "_deviceName",
          "type": "string"
        },
        {
          "indexed": false,
          "name": "_mac",
          "type": "string"
        },
        {
          "indexed": false,
          "name": "_publicKey",
          "type": "string"
        },
        {
          "indexed": false,
          "name": "_data",
          "type": "string"
        }
      ],
      "name": "RequestedToJoinGateway",
      "type": "event"
    },
    {
      "anonymous": false,
      "inputs": [
        {
          "indexed": false,
          "name": "_publicKey",
          "type": "string"
        },
        {
          "indexed": false,
          "name": "_data",
          "type": "string"
        },
        {
          "indexed": false,
          "name": "_owner",
          "type": "address"
        }
      ],
      "name": "RequestedToJoinAsGateway",
      "type": "event"
    },
    {
      "anonymous": false,
      "inputs": [
        {
          "indexed": false,
          "name": "_senderId",
          "type": "uint256"
        },
        {
          "indexed": false,
          "name": "_publicKey",
          "type": "string"
        },
        {
          "indexed": false,
          "name": "_data",
          "type": "string"
        },
        {
          "indexed": false,
          "name": "_owner",
          "type": "address"
        },
        {
          "indexed": false,
          "name": "_gatewayId",
          "type": "uint256"
        }
      ],
      "name": "InternalGatewayAdded",
      "type": "event"
    },
    {
      "anonymous": false,
      "inputs": [
        {
          "indexed": false,
          "name": "_publicKey",
          "type": "string"
        },
        {
          "indexed": false,
          "name": "_deviceName",
          "type": "string"
        },
        {
          "indexed": false,
          "name": "_address",
          "type": "address"
        },
        {
          "indexed": false,
          "name": "_id",
          "type": "uint256"
        }
      ],
      "name": "TierOneAccountAdded",
      "type": "event"
    },
    {
      "anonymous": false,
      "inputs": [
        {
          "indexed": false,
          "name": "_senderId",
          "type": "uint256"
        },
        {
          "indexed": false,
          "name": "_deviceId",
          "type": "uint256"
        },
        {
          "indexed": false,
          "name": "_deviceName",
          "type": "string"
        },
        {
          "indexed": false,
          "name": "_mac",
          "type": "string"
        },
        {
          "indexed": false,
          "name": "_publicKey",
          "type": "string"
        },
        {
          "indexed": false,
          "name": "_data",
          "type": "string"
        },
        {
          "indexed": false,
          "name": "_nodeId",
          "type": "uint256"
        },
        {
          "indexed": false,
          "name": "_owner",
          "type": "address"
        }
      ],
      "name": "NodeAddedToGateway",
      "type": "event"
    },
    {
      "constant": true,
      "inputs": [],
      "name": "GetReadAddress",
      "outputs": [
        {
          "name": "",
          "type": "address"
        }
      ],
      "payable": false,
      "stateMutability": "view",
      "type": "function"
    },
    {
      "constant": true,
      "inputs": [],
      "name": "GetWriteAddress",
      "outputs": [
        {
          "name": "",
          "type": "address"
        }
      ],
      "payable": false,
      "stateMutability": "view",
      "type": "function"
    },
    {
      "constant": true,
      "inputs": [],
      "name": "GetGlobalDataAddress",
      "outputs": [
        {
          "name": "",
          "type": "address"
        }
      ],
      "payable": false,
      "stateMutability": "view",
      "type": "function"
    },
    {
      "constant": true,
      "inputs": [],
      "name": "GetCertificateAddress",
      "outputs": [
        {
          "name": "",
          "type": "address"
        }
      ],
      "payable": false,
      "stateMutability": "view",
      "type": "function"
    },
    {
      "constant": true,
      "inputs": [],
      "name": "GetCertificateId",
      "outputs": [
        {
          "name": "",
          "type": "uint256"
        }
      ],
      "payable": false,
      "stateMutability": "view",
      "type": "function"
    },
    {
      "constant": false,
      "inputs": [
        {
          "name": "_senderId",
          "type": "uint256"
        },
        {
          "name": "_nodePublicKey",
          "type": "string"
        },
        {
          "name": "_command",
          "type": "uint256"
        }
      ],
      "name": "SwitchActiveDevice",
      "outputs": [],
      "payable": false,
      "stateMutability": "nonpayable",
      "type": "function"
    },
    {
      "constant": false,
      "inputs": [
        {
          "name": "_senderId",
          "type": "uint256"
        },
        {
          "name": "_nodePublicKey",
          "type": "string"
        },
        {
          "name": "_targetPublicKey",
          "type": "string"
        },
        {
          "name": "_data",
          "type": "string"
        },
        {
          "name": "_command",
          "type": "uint256"
        }
      ],
      "name": "AddPermission",
      "outputs": [],
      "payable": false,
      "stateMutability": "nonpayable",
      "type": "function"
    },
    {
      "constant": false,
      "inputs": [
        {
          "name": "_senderId",
          "type": "uint256"
        },
        {
          "name": "_nodePublicKey",
          "type": "string"
        },
        {
          "name": "_targetPublicKey",
          "type": "string"
        },
        {
          "name": "_data",
          "type": "string"
        },
        {
          "name": "_active",
          "type": "bool"
        },
        {
          "name": "_command",
          "type": "uint256"
        }
      ],
      "name": "UpdatePermission",
      "outputs": [],
      "payable": false,
      "stateMutability": "nonpayable",
      "type": "function"
    },
    {
      "constant": false,
      "inputs": [
        {
          "name": "_senderId",
          "type": "uint256"
        },
        {
          "name": "PublicKey",
          "type": "string"
        },
        {
          "name": "DeviceName",
          "type": "string"
        },
        {
          "name": "MAC",
          "type": "string"
        },
        {
          "name": "ArbitraryData",
          "type": "string"
        },
        {
          "name": "CertHolder",
          "type": "address"
        }
      ],
      "name": "AddCertificate",
      "outputs": [],
      "payable": false,
      "stateMutability": "nonpayable",
      "type": "function"
    },
    {
      "constant": false,
      "inputs": [
        {
          "name": "_senderId",
          "type": "uint256"
        },
        {
          "name": "CertificateId",
          "type": "uint256"
        }
      ],
      "name": "DisableCertificate",
      "outputs": [],
      "payable": false,
      "stateMutability": "nonpayable",
      "type": "function"
    },
    {
      "constant": true,
      "inputs": [
        {
          "name": "_id",
          "type": "uint256"
        },
        {
          "name": "_senderId",
          "type": "uint256"
        }
      ],
      "name": "GetAccountDetails",
      "outputs": [
        {
          "name": "",
          "type": "uint256"
        },
        {
          "name": "",
          "type": "string"
        },
        {
          "name": "",
          "type": "string"
        },
        {
          "name": "",
          "type": "address"
        }
      ],
      "payable": false,
      "stateMutability": "view",
      "type": "function"
    },
    {
      "constant": false,
      "inputs": [
        {
          "name": "_publicKey",
          "type": "string"
        },
        {
          "name": "_deviceName",
          "type": "string"
        },
        {
          "name": "_address",
          "type": "address"
        }
      ],
      "name": "AddTierOneAccount",
      "outputs": [
        {
          "name": "",
          "type": "uint256"
        }
      ],
      "payable": false,
      "stateMutability": "nonpayable",
      "type": "function"
    },
    {
      "constant": false,
      "inputs": [
        {
          "name": "_senderId",
          "type": "uint256"
        },
        {
          "name": "_publicKey",
          "type": "string"
        },
        {
          "name": "_data",
          "type": "string"
        },
        {
          "name": "_owner",
          "type": "address"
        }
      ],
      "name": "AddInternalGateway",
      "outputs": [
        {
          "name": "",
          "type": "uint256"
        }
      ],
      "payable": false,
      "stateMutability": "nonpayable",
      "type": "function"
    },
    {
      "constant": false,
      "inputs": [
        {
          "name": "_senderId",
          "type": "uint256"
        },
        {
          "name": "_deviceId",
          "type": "uint256"
        },
        {
          "name": "_deviceName",
          "type": "string"
        },
        {
          "name": "_mac",
          "type": "string"
        },
        {
          "name": "_publicKey",
          "type": "string"
        },
        {
          "name": "_data",
          "type": "string"
        }
      ],
      "name": "AddNodeToGateway",
      "outputs": [
        {
          "name": "",
          "type": "uint256"
        }
      ],
      "payable": false,
      "stateMutability": "nonpayable",
      "type": "function"
    },
    {
      "constant": true,
      "inputs": [
        {
          "name": "_id",
          "type": "uint256"
        },
        {
          "name": "_senderId",
          "type": "uint256"
        }
      ],
      "name": "GetGatewayDetails",
      "outputs": [
        {
          "name": "",
          "type": "string"
        },
        {
          "name": "",
          "type": "string"
        },
        {
          "name": "",
          "type": "address"
        }
      ],
      "payable": false,
      "stateMutability": "view",
      "type": "function"
    },
    {
      "constant": true,
      "inputs": [
        {
          "name": "_id",
          "type": "uint256"
        },
        {
          "name": "_nodeId",
          "type": "uint256"
        },
        {
          "name": "_senderId",
          "type": "uint256"
        }
      ],
      "name": "GetGatewayNodeDetails",
      "outputs": [
        {
          "name": "",
          "type": "uint256"
        },
        {
          "name": "",
          "type": "string"
        },
        {
          "name": "",
          "type": "string"
        },
        {
          "name": "",
          "type": "string"
        },
        {
          "name": "",
          "type": "string"
        }
      ],
      "payable": false,
      "stateMutability": "view",
      "type": "function"
    },
    {
      "constant": true,
      "inputs": [
        {
          "name": "_senderId",
          "type": "uint256"
        }
      ],
      "name": "GatewaysCount",
      "outputs": [
        {
          "name": "",
          "type": "uint256"
        }
      ],
      "payable": false,
      "stateMutability": "view",
      "type": "function"
    },
    {
      "constant": true,
      "inputs": [
        {
          "name": "_id",
          "type": "uint256"
        },
        {
          "name": "_senderId",
          "type": "uint256"
        }
      ],
      "name": "GatwayNodeCount",
      "outputs": [
        {
          "name": "",
          "type": "uint256"
        }
      ],
      "payable": false,
      "stateMutability": "view",
      "type": "function"
    },
    {
      "constant": true,
      "inputs": [],
      "name": "TierOneCount",
      "outputs": [
        {
          "name": "",
          "type": "uint256"
        }
      ],
      "payable": false,
      "stateMutability": "view",
      "type": "function"
    },
    {
      "constant": false,
      "inputs": [
        {
          "name": "_id",
          "type": "uint256"
        },
        {
          "name": "_deviceName",
          "type": "string"
        },
        {
          "name": "_mac",
          "type": "string"
        },
        {
          "name": "_publicKey",
          "type": "string"
        },
        {
          "name": "_data",
          "type": "string"
        }
      ],
      "name": "RequestToJoinGateway",
      "outputs": [],
      "payable": false,
      "stateMutability": "nonpayable",
      "type": "function"
    },
    {
      "constant": false,
      "inputs": [
        {
          "name": "_publicKey",
          "type": "string"
        },
        {
          "name": "_data",
          "type": "string"
        }
      ],
      "name": "RequestToJoinAsGateway",
      "outputs": [],
      "payable": false,
      "stateMutability": "nonpayable",
      "type": "function"
    }
  ],
  "bytecode": "0x608060405260405162008c7538038062008c7583398101806040528101908080518201929190505050336000806101000a81548173ffffffffffffffffffffffffffffffffffffffff021916908373ffffffffffffffffffffffffffffffffffffffff16021790555080600190805190602001906200008092919062000633565b506200009a6200031b640100000000026401000000009004565b600660006101000a81548173ffffffffffffffffffffffffffffffffffffffff021916908373ffffffffffffffffffffffffffffffffffffffff160217905550620000f36200034f640100000000026401000000009004565b600760006101000a81548173ffffffffffffffffffffffffffffffffffffffff021916908373ffffffffffffffffffffffffffffffffffffffff1602179055506200013d620006ba565b604051809103906000f0801580156200015a573d6000803e3d6000fd5b50600860006101000a81548173ffffffffffffffffffffffffffffffffffffffff021916908373ffffffffffffffffffffffffffffffffffffffff160217905550620001a5620006cb565b604051809103906000f080158015620001c2573d6000803e3d6000fd5b50600960006101000a81548173ffffffffffffffffffffffffffffffffffffffff021916908373ffffffffffffffffffffffffffffffffffffffff1602179055506200031360018054600181600116156101000203166002900480601f016020809104026020016040519081016040528092919081815260200182805460018160011615610100020316600290048015620002a15780601f106200027557610100808354040283529160200191620002a1565b820191906000526020600020905b8154815290600101906020018083116200028357829003601f168201915b50505050506040805190810160405280600481526020017f526f6f74000000000000000000000000000000000000000000000000000000008152506000809054906101000a900473ffffffffffffffffffffffffffffffffffffffff1662000383640100000000026401000000009004565b50506200079c565b60008062000328620006dc565b604051809103906000f08015801562000345573d6000803e3d6000fd5b5090508091505090565b6000806200035c620006dc565b604051809103906000f08015801562000379573d6000803e3d6000fd5b5090508091505090565b60003373ffffffffffffffffffffffffffffffffffffffff166000809054906101000a900473ffffffffffffffffffffffffffffffffffffffff1673ffffffffffffffffffffffffffffffffffffffff16141515620003e157600080fd5b60806040519081016040528060055481526020018581526020018481526020018373ffffffffffffffffffffffffffffffffffffffff1681525060026000600554815260200190815260200160002060008201518160000155602082015181600101908051906020019062000458929190620006ed565b50604082015181600201908051906020019062000477929190620006ed565b5060608201518160030160006101000a81548173ffffffffffffffffffffffffffffffffffffffff021916908373ffffffffffffffffffffffffffffffffffffffff1602179055509050506005600081548092919060010191905055507ffd8b87dc96ab27b74cb347cde72a12912bd8f9ea48abdf66bee452925876fe538484846001600554036040518080602001806020018573ffffffffffffffffffffffffffffffffffffffff1673ffffffffffffffffffffffffffffffffffffffff168152602001848152602001838103835287818151815260200191508051906020019080838360005b838110156200057c5780820151818401526020810190506200055f565b50505050905090810190601f168015620005aa5780820380516001836020036101000a031916815260200191505b50838103825286818151815260200191508051906020019080838360005b83811015620005e5578082015181840152602081019050620005c8565b50505050905090810190601f168015620006135780820380516001836020036101000a031916815260200191505b50965050505050505060405180910390a160016005540390509392505050565b828054600181600116156101000203166002900490600052602060002090601f016020900481019282601f106200067657805160ff1916838001178555620006a7565b82800160010185558215620006a7579182015b82811115620006a657825182559160200191906001019062000689565b5b509050620006b6919062000774565b5090565b6040516105b18062005a4c83390190565b604051610afa8062005ffd83390190565b60405161217e8062006af783390190565b828054600181600116156101000203166002900490600052602060002090601f016020900481019282601f106200073057805160ff191683800117855562000761565b8280016001018555821562000761579182015b828111156200076057825182559160200191906001019062000743565b5b50905062000770919062000774565b5090565b6200079991905b80821115620007955760008160009055506001016200077b565b5090565b90565b6152a080620007ac6000396000f3006080604052600436106200013f576000357c0100000000000000000000000000000000000000000000000000000000900463ffffffff16806307dbf6d414620001445780630c48599b146200019e578063264d887514620002f65780632befd6a714620003e657806331c291d014620004405780634a75079a14620005a85780635232170a14620005d6578063568da91214620006bc5780635e267ca7146200082257806364854d661462000850578063807c4b79146200088a5780638102b1c214620008e45780639421ac551462000964578063afc472721462000ac3578063b12637791462000b1d578063b30f08bd1462000b61578063b8fd64d61462000bbb578063bbfb86151462000c09578063c4c46f001462000d21578063d76fc2bc1462000e2d578063e41dcdaa1462000f75578063f8bba8971462001027575b600080fd5b3480156200015157600080fd5b506200015c6200123b565b604051808273ffffffffffffffffffffffffffffffffffffffff1673ffffffffffffffffffffffffffffffffffffffff16815260200191505060405180910390f35b348015620001ab57600080fd5b50620001d6600480360381019080803590602001909291908035906020019092919050505062001265565b6040518080602001806020018473ffffffffffffffffffffffffffffffffffffffff1673ffffffffffffffffffffffffffffffffffffffff168152602001838103835286818151815260200191508051906020019080838360005b838110156200024e57808201518184015260208101905062000231565b50505050905090810190601f1680156200027c5780820380516001836020036101000a031916815260200191505b50838103825285818151815260200191508051906020019080838360005b83811015620002b75780820151818401526020810190506200029a565b50505050905090810190601f168015620002e55780820380516001836020036101000a031916815260200191505b509550505050505060405180910390f35b3480156200030357600080fd5b50620003d060048036038101908080359060200190929190803590602001908201803590602001908080601f0160208091040260200160405190810160405280939291908181526020018383808284378201915050505050509192919290803590602001908201803590602001908080601f0160208091040260200160405190810160405280939291908181526020018383808284378201915050505050509192919290803573ffffffffffffffffffffffffffffffffffffffff169060200190929190505050620014a1565b6040518082815260200191505060405180910390f35b348015620003f357600080fd5b50620003fe62001849565b604051808273ffffffffffffffffffffffffffffffffffffffff1673ffffffffffffffffffffffffffffffffffffffff16815260200191505060405180910390f35b3480156200044d57600080fd5b50620005a660048036038101908080359060200190929190803590602001908201803590602001908080601f0160208091040260200160405190810160405280939291908181526020018383808284378201915050505050509192919290803590602001908201803590602001908080601f0160208091040260200160405190810160405280939291908181526020018383808284378201915050505050509192919290803590602001908201803590602001908080601f0160208091040260200160405190810160405280939291908181526020018383808284378201915050505050509192919290803590602001908201803590602001908080601f0160208091040260200160405190810160405280939291908181526020018383808284378201915050505050509192919290803573ffffffffffffffffffffffffffffffffffffffff16906020019092919050505062001873565b005b348015620005b557600080fd5b50620005c062001c01565b6040518082815260200191505060405180910390f35b348015620005e357600080fd5b50620006a6600480360381019080803590602001908201803590602001908080601f0160208091040260200160405190810160405280939291908181526020018383808284378201915050505050509192919290803590602001908201803590602001908080601f0160208091040260200160405190810160405280939291908181526020018383808284378201915050505050509192919290803573ffffffffffffffffffffffffffffffffffffffff16906020019092919050505062001c97565b6040518082815260200191505060405180910390f35b348015620006c957600080fd5b506200080c6004803603810190808035906020019092919080359060200190929190803590602001908201803590602001908080601f0160208091040260200160405190810160405280939291908181526020018383808284378201915050505050509192919290803590602001908201803590602001908080601f0160208091040260200160405190810160405280939291908181526020018383808284378201915050505050509192919290803590602001908201803590602001908080601f0160208091040260200160405190810160405280939291908181526020018383808284378201915050505050509192919290803590602001908201803590602001908080601f016020809104026020016040519081016040528093929190818152602001838380828437820191505050505050919291929050505062001f47565b6040518082815260200191505060405180910390f35b3480156200082f57600080fd5b506200083a62002504565b6040518082815260200191505060405180910390f35b3480156200085d57600080fd5b506200088860048036038101908080359060200190929190803590602001909291905050506200256a565b005b3480156200089757600080fd5b50620008a26200269b565b604051808273ffffffffffffffffffffffffffffffffffffffff1673ffffffffffffffffffffffffffffffffffffffff16815260200191505060405180910390f35b348015620008f157600080fd5b506200096260048036038101908080359060200190929190803590602001908201803590602001908080601f016020809104026020016040519081016040528093929190818152602001838380828437820191505050505050919291929080359060200190929190505050620026c5565b005b3480156200097157600080fd5b506200099c600480360381019080803590602001909291908035906020019092919050505062002994565b6040518085815260200180602001806020018473ffffffffffffffffffffffffffffffffffffffff1673ffffffffffffffffffffffffffffffffffffffff168152602001838103835286818151815260200191508051906020019080838360005b8381101562000a1a578082015181840152602081019050620009fd565b50505050905090810190601f16801562000a485780820380516001836020036101000a031916815260200191505b50838103825285818151815260200191508051906020019080838360005b8381101562000a8357808201518184015260208101905062000a66565b50505050905090810190601f16801562000ab15780820380516001836020036101000a031916815260200191505b50965050505050505060405180910390f35b34801562000ad057600080fd5b5062000adb62002bf9565b604051808273ffffffffffffffffffffffffffffffffffffffff1673ffffffffffffffffffffffffffffffffffffffff16815260200191505060405180910390f35b34801562000b2a57600080fd5b5062000b4b6004803603810190808035906020019092919050505062002c1f565b6040518082815260200191505060405180910390f35b34801562000b6e57600080fd5b5062000b7962002cb0565b604051808273ffffffffffffffffffffffffffffffffffffffff1673ffffffffffffffffffffffffffffffffffffffff16815260200191505060405180910390f35b34801562000bc857600080fd5b5062000bf3600480360381019080803590602001909291908035906020019092919050505062002cda565b6040518082815260200191505060405180910390f35b34801562000c1657600080fd5b5062000d1f60048036038101908080359060200190929190803590602001908201803590602001908080601f0160208091040260200160405190810160405280939291908181526020018383808284378201915050505050509192919290803590602001908201803590602001908080601f0160208091040260200160405190810160405280939291908181526020018383808284378201915050505050509192919290803590602001908201803590602001908080601f01602080910402602001604051908101604052809392919081815260200183838082843782019150505050505091929192908035151590602001909291908035906020019092919050505062002e56565b005b34801562000d2e57600080fd5b5062000e2b60048036038101908080359060200190929190803590602001908201803590602001908080601f0160208091040260200160405190810160405280939291908181526020018383808284378201915050505050509192919290803590602001908201803590602001908080601f0160208091040260200160405190810160405280939291908181526020018383808284378201915050505050509192919290803590602001908201803590602001908080601f01602080910402602001604051908101604052809392919081815260200183838082843782019150505050505091929192908035906020019092919050505062003300565b005b34801562000e3a57600080fd5b5062000f7360048036038101908080359060200190929190803590602001908201803590602001908080601f0160208091040260200160405190810160405280939291908181526020018383808284378201915050505050509192919290803590602001908201803590602001908080601f0160208091040260200160405190810160405280939291908181526020018383808284378201915050505050509192919290803590602001908201803590602001908080601f0160208091040260200160405190810160405280939291908181526020018383808284378201915050505050509192919290803590602001908201803590602001908080601f016020809104026020016040519081016040528093929190818152602001838380828437820191505050505050919291929050505062003791565b005b34801562000f8257600080fd5b5062001025600480360381019080803590602001908201803590602001908080601f0160208091040260200160405190810160405280939291908181526020018383808284378201915050505050509192919290803590602001908201803590602001908080601f016020809104026020016040519081016040528093929190818152602001838380828437820191505050505050919291929050505062003a18565b005b3480156200103457600080fd5b506200106960048036038101908080359060200190929190803590602001909291908035906020019092919050505062003b5f565b6040518086815260200180602001806020018060200180602001858103855289818151815260200191508051906020019080838360005b83811015620010bd578082015181840152602081019050620010a0565b50505050905090810190601f168015620010eb5780820380516001836020036101000a031916815260200191505b50858103845288818151815260200191508051906020019080838360005b838110156200112657808201518184015260208101905062001109565b50505050905090810190601f168015620011545780820380516001836020036101000a031916815260200191505b50858103835287818151815260200191508051906020019080838360005b838110156200118f57808201518184015260208101905062001172565b50505050905090810190601f168015620011bd5780820380516001836020036101000a031916815260200191505b50858103825286818151815260200191508051906020019080838360005b83811015620011f8578082015181840152602081019050620011db565b50505050905090810190601f168015620012265780820380516001836020036101000a031916815260200191505b50995050505050505050505060405180910390f35b6000600860009054906101000a900473ffffffffffffffffffffffffffffffffffffffff16905090565b6060806000600554841015156200127b57600080fd5b600380549050851015156200128f57600080fd5b3373ffffffffffffffffffffffffffffffffffffffff166002600086815260200190815260200160002060030160009054906101000a900473ffffffffffffffffffffffffffffffffffffffff1673ffffffffffffffffffffffffffffffffffffffff161415156200130057600080fd5b6003858154811015156200131057fe5b9060005260206000200160009054906101000a900473ffffffffffffffffffffffffffffffffffffffff1673ffffffffffffffffffffffffffffffffffffffff1663cc2e8cca6040518163ffffffff167c0100000000000000000000000000000000000000000000000000000000028152600401600060405180830381600087803b1580156200139f57600080fd5b505af1158015620013b4573d6000803e3d6000fd5b505050506040513d6000823e3d601f19601f820116820180604052506060811015620013df57600080fd5b810190808051640100000000811115620013f857600080fd5b828101905060208101848111156200140f57600080fd5b81518560018202830111640100000000821117156200142d57600080fd5b505092919060200180516401000000008111156200144a57600080fd5b828101905060208101848111156200146157600080fd5b81518560018202830111640100000000821117156200147f57600080fd5b5050929190602001805190602001909291905050509250925092509250925092565b60008060055486101515620014b557600080fd5b3373ffffffffffffffffffffffffffffffffffffffff166002600088815260200190815260200160002060030160009054906101000a900473ffffffffffffffffffffffffffffffffffffffff1673ffffffffffffffffffffffffffffffffffffffff161415156200152657600080fd5b6003805490508585856200153962003e52565b8085815260200180602001806020018473ffffffffffffffffffffffffffffffffffffffff1673ffffffffffffffffffffffffffffffffffffffff168152602001838103835286818151815260200191508051906020019080838360005b83811015620015b457808201518184015260208101905062001597565b50505050905090810190601f168015620015e25780820380516001836020036101000a031916815260200191505b50838103825285818151815260200191508051906020019080838360005b838110156200161d57808201518184015260208101905062001600565b50505050905090810190601f1680156200164b5780820380516001836020036101000a031916815260200191505b509650505050505050604051809103906000f08015801562001671573d6000803e3d6000fd5b50905060038190806001815401808255809150509060018203906000526020600020016000909192909190916101000a81548173ffffffffffffffffffffffffffffffffffffffff021916908373ffffffffffffffffffffffffffffffffffffffff160217905550507ff280d23dc87b2d7446d3480ccaf8ed4a878442f57d8e7be506007b1aaee95e8c868686866001600380549050036040518086815260200180602001806020018573ffffffffffffffffffffffffffffffffffffffff1673ffffffffffffffffffffffffffffffffffffffff168152602001848152602001838103835287818151815260200191508051906020019080838360005b838110156200178c5780820151818401526020810190506200176f565b50505050905090810190601f168015620017ba5780820380516001836020036101000a031916815260200191505b50838103825286818151815260200191508051906020019080838360005b83811015620017f5578082015181840152602081019050620017d8565b50505050905090810190601f168015620018235780820380516001836020036101000a031916815260200191505b5097505050505050505060405180910390a1600160038054905003915050949350505050565b6000600760009054906101000a900473ffffffffffffffffffffffffffffffffffffffff16905090565b6000600554871015156200188657600080fd5b3373ffffffffffffffffffffffffffffffffffffffff166002600089815260200190815260200160002060030160009054906101000a900473ffffffffffffffffffffffffffffffffffffffff1673ffffffffffffffffffffffffffffffffffffffff16141515620018f757600080fd5b600960009054906101000a900473ffffffffffffffffffffffffffffffffffffffff1673ffffffffffffffffffffffffffffffffffffffff16634ab20a9a33888888886040518663ffffffff167c0100000000000000000000000000000000000000000000000000000000028152600401808673ffffffffffffffffffffffffffffffffffffffff1673ffffffffffffffffffffffffffffffffffffffff16815260200180602001806020018060200180602001858103855289818151815260200191508051906020019080838360005b83811015620019e5578082015181840152602081019050620019c8565b50505050905090810190601f16801562001a135780820380516001836020036101000a031916815260200191505b50858103845288818151815260200191508051906020019080838360005b8381101562001a4e57808201518184015260208101905062001a31565b50505050905090810190601f16801562001a7c5780820380516001836020036101000a031916815260200191505b50858103835287818151815260200191508051906020019080838360005b8381101562001ab757808201518184015260208101905062001a9a565b50505050905090810190601f16801562001ae55780820380516001836020036101000a031916815260200191505b50858103825286818151815260200191508051906020019080838360005b8381101562001b2057808201518184015260208101905062001b03565b50505050905090810190601f16801562001b4e5780820380516001836020036101000a031916815260200191505b509950505050505050505050602060405180830381600087803b15801562001b7557600080fd5b505af115801562001b8a573d6000803e3d6000fd5b505050506040513d602081101562001ba157600080fd5b8101908080519060200190929190505050905080600460008473ffffffffffffffffffffffffffffffffffffffff1673ffffffffffffffffffffffffffffffffffffffff1681526020019081526020016000208190555050505050505050565b600080600460003373ffffffffffffffffffffffffffffffffffffffff1673ffffffffffffffffffffffffffffffffffffffff168152602001908152602001600020541415151562001c5257600080fd5b600460003373ffffffffffffffffffffffffffffffffffffffff1673ffffffffffffffffffffffffffffffffffffffff16815260200190815260200160002054905090565b60003373ffffffffffffffffffffffffffffffffffffffff166000809054906101000a900473ffffffffffffffffffffffffffffffffffffffff1673ffffffffffffffffffffffffffffffffffffffff1614151562001cf557600080fd5b60806040519081016040528060055481526020018581526020018481526020018373ffffffffffffffffffffffffffffffffffffffff1681525060026000600554815260200190815260200160002060008201518160000155602082015181600101908051906020019062001d6c92919062003e63565b50604082015181600201908051906020019062001d8b92919062003e63565b5060608201518160030160006101000a81548173ffffffffffffffffffffffffffffffffffffffff021916908373ffffffffffffffffffffffffffffffffffffffff1602179055509050506005600081548092919060010191905055507ffd8b87dc96ab27b74cb347cde72a12912bd8f9ea48abdf66bee452925876fe538484846001600554036040518080602001806020018573ffffffffffffffffffffffffffffffffffffffff1673ffffffffffffffffffffffffffffffffffffffff168152602001848152602001838103835287818151815260200191508051906020019080838360005b8381101562001e9057808201518184015260208101905062001e73565b50505050905090810190601f16801562001ebe5780820380516001836020036101000a031916815260200191505b50838103825286818151815260200191508051906020019080838360005b8381101562001ef957808201518184015260208101905062001edc565b50505050905090810190601f16801562001f275780820380516001836020036101000a031916815260200191505b50965050505050505060405180910390a160016005540390509392505050565b6000806005548810151562001f5b57600080fd5b6003805490508710151562001f6f57600080fd5b3373ffffffffffffffffffffffffffffffffffffffff16600260008a815260200190815260200160002060030160009054906101000a900473ffffffffffffffffffffffffffffffffffffffff1673ffffffffffffffffffffffffffffffffffffffff1614151562001fe057600080fd5b60038781548110151562001ff057fe5b9060005260206000200160009054906101000a900473ffffffffffffffffffffffffffffffffffffffff1673ffffffffffffffffffffffffffffffffffffffff1663cd49625f878787876040518563ffffffff167c01000000000000000000000000000000000000000000000000000000000281526004018080602001806020018060200180602001858103855289818151815260200191508051906020019080838360005b83811015620020b357808201518184015260208101905062002096565b50505050905090810190601f168015620020e15780820380516001836020036101000a031916815260200191505b50858103845288818151815260200191508051906020019080838360005b838110156200211c578082015181840152602081019050620020ff565b50505050905090810190601f1680156200214a5780820380516001836020036101000a031916815260200191505b50858103835287818151815260200191508051906020019080838360005b838110156200218557808201518184015260208101905062002168565b50505050905090810190601f168015620021b35780820380516001836020036101000a031916815260200191505b50858103825286818151815260200191508051906020019080838360005b83811015620021ee578082015181840152602081019050620021d1565b50505050905090810190601f1680156200221c5780820380516001836020036101000a031916815260200191505b5098505050505050505050602060405180830381600087803b1580156200224257600080fd5b505af115801562002257573d6000803e3d6000fd5b505050506040513d60208110156200226e57600080fd5b810190808051906020019092919050505090507f159c46725a9eb4da7022e2f8125f5b70eb345aa0c56cebe0156a76fab34880608888888888888760038f815481101515620022b957fe5b9060005260206000200160009054906101000a900473ffffffffffffffffffffffffffffffffffffffff1660405180898152602001888152602001806020018060200180602001806020018781526020018673ffffffffffffffffffffffffffffffffffffffff1673ffffffffffffffffffffffffffffffffffffffff16815260200185810385528b818151815260200191508051906020019080838360005b838110156200237657808201518184015260208101905062002359565b50505050905090810190601f168015620023a45780820380516001836020036101000a031916815260200191505b5085810384528a818151815260200191508051906020019080838360005b83811015620023df578082015181840152602081019050620023c2565b50505050905090810190601f1680156200240d5780820380516001836020036101000a031916815260200191505b50858103835289818151815260200191508051906020019080838360005b83811015620024485780820151818401526020810190506200242b565b50505050905090810190601f168015620024765780820380516001836020036101000a031916815260200191505b50858103825288818151815260200191508051906020019080838360005b83811015620024b157808201518184015260208101905062002494565b50505050905090810190601f168015620024df5780820380516001836020036101000a031916815260200191505b509c5050505050505050505050505060405180910390a1809150509695505050505050565b60003373ffffffffffffffffffffffffffffffffffffffff166000809054906101000a900473ffffffffffffffffffffffffffffffffffffffff1673ffffffffffffffffffffffffffffffffffffffff161415156200256257600080fd5b600554905090565b600554821015156200257b57600080fd5b3373ffffffffffffffffffffffffffffffffffffffff166002600084815260200190815260200160002060030160009054906101000a900473ffffffffffffffffffffffffffffffffffffffff1673ffffffffffffffffffffffffffffffffffffffff16141515620025ec57600080fd5b600960009054906101000a900473ffffffffffffffffffffffffffffffffffffffff1673ffffffffffffffffffffffffffffffffffffffff1663b83c575b826040518263ffffffff167c010000000000000000000000000000000000000000000000000000000002815260040180828152602001915050600060405180830381600087803b1580156200267e57600080fd5b505af115801562002693573d6000803e3d6000fd5b505050505050565b6000600960009054906101000a900473ffffffffffffffffffffffffffffffffffffffff16905090565b60055483101515620026d657600080fd5b3373ffffffffffffffffffffffffffffffffffffffff166002600085815260200190815260200160002060030160009054906101000a900473ffffffffffffffffffffffffffffffffffffffff1673ffffffffffffffffffffffffffffffffffffffff161415156200274757600080fd5b60008114156200286a57600660009054906101000a900473ffffffffffffffffffffffffffffffffffffffff1673ffffffffffffffffffffffffffffffffffffffff166396ccac73836040518263ffffffff167c01000000000000000000000000000000000000000000000000000000000281526004018080602001828103825283818151815260200191508051906020019080838360005b83811015620027fd578082015181840152602081019050620027e0565b50505050905090810190601f1680156200282b5780820380516001836020036101000a031916815260200191505b5092505050600060405180830381600087803b1580156200284b57600080fd5b505af115801562002860573d6000803e3d6000fd5b505050506200298f565b60018114156200298d57600760009054906101000a900473ffffffffffffffffffffffffffffffffffffffff1673ffffffffffffffffffffffffffffffffffffffff166396ccac73836040518263ffffffff167c01000000000000000000000000000000000000000000000000000000000281526004018080602001828103825283818151815260200191508051906020019080838360005b838110156200292057808201518184015260208101905062002903565b50505050905090810190601f1680156200294e5780820380516001836020036101000a031916815260200191505b5092505050600060405180830381600087803b1580156200296e57600080fd5b505af115801562002983573d6000803e3d6000fd5b505050506200298e565b5b5b505050565b6000606080600060055486101515620029ac57600080fd5b60055485101515620029bd57600080fd5b3373ffffffffffffffffffffffffffffffffffffffff166002600087815260200190815260200160002060030160009054906101000a900473ffffffffffffffffffffffffffffffffffffffff1673ffffffffffffffffffffffffffffffffffffffff1614151562002a2e57600080fd5b60026000878152602001908152602001600020600001546002600088815260200190815260200160002060010160026000898152602001908152602001600020600201600260008a815260200190815260200160002060030160009054906101000a900473ffffffffffffffffffffffffffffffffffffffff16828054600181600116156101000203166002900480601f01602080910402602001604051908101604052809291908181526020018280546001816001161561010002031660029004801562002b415780601f1062002b155761010080835404028352916020019162002b41565b820191906000526020600020905b81548152906001019060200180831162002b2357829003601f168201915b50505050509250818054600181600116156101000203166002900480601f01602080910402602001604051908101604052809291908181526020018280546001816001161561010002031660029004801562002be15780601f1062002bb55761010080835404028352916020019162002be1565b820191906000526020600020905b81548152906001019060200180831162002bc357829003601f168201915b50505050509150935093509350935092959194509250565b600860009054906101000a900473ffffffffffffffffffffffffffffffffffffffff1681565b60006005548210151562002c3257600080fd5b3373ffffffffffffffffffffffffffffffffffffffff166002600084815260200190815260200160002060030160009054906101000a900473ffffffffffffffffffffffffffffffffffffffff1673ffffffffffffffffffffffffffffffffffffffff1614151562002ca357600080fd5b6003805490509050919050565b6000600660009054906101000a900473ffffffffffffffffffffffffffffffffffffffff16905090565b60006005548210151562002ced57600080fd5b3373ffffffffffffffffffffffffffffffffffffffff166002600084815260200190815260200160002060030160009054906101000a900473ffffffffffffffffffffffffffffffffffffffff1673ffffffffffffffffffffffffffffffffffffffff1614151562002d5e57600080fd5b6003805490508310151562002d7257600080fd5b60038381548110151562002d8257fe5b9060005260206000200160009054906101000a900473ffffffffffffffffffffffffffffffffffffffff1673ffffffffffffffffffffffffffffffffffffffff166370f2a9716040518163ffffffff167c0100000000000000000000000000000000000000000000000000000000028152600401602060405180830381600087803b15801562002e1157600080fd5b505af115801562002e26573d6000803e3d6000fd5b505050506040513d602081101562002e3d57600080fd5b8101908080519060200190929190505050905092915050565b6005548610151562002e6757600080fd5b3373ffffffffffffffffffffffffffffffffffffffff166002600088815260200190815260200160002060030160009054906101000a900473ffffffffffffffffffffffffffffffffffffffff1673ffffffffffffffffffffffffffffffffffffffff1614151562002ed857600080fd5b6000811415620030e757600660009054906101000a900473ffffffffffffffffffffffffffffffffffffffff1673ffffffffffffffffffffffffffffffffffffffff1663084bd4e5868686866040518563ffffffff167c01000000000000000000000000000000000000000000000000000000000281526004018080602001806020018060200185151515158152602001848103845288818151815260200191508051906020019080838360005b8381101562002fa357808201518184015260208101905062002f86565b50505050905090810190601f16801562002fd15780820380516001836020036101000a031916815260200191505b50848103835287818151815260200191508051906020019080838360005b838110156200300c57808201518184015260208101905062002fef565b50505050905090810190601f1680156200303a5780820380516001836020036101000a031916815260200191505b50848103825286818151815260200191508051906020019080838360005b838110156200307557808201518184015260208101905062003058565b50505050905090810190601f168015620030a35780820380516001836020036101000a031916815260200191505b50975050505050505050600060405180830381600087803b158015620030c857600080fd5b505af1158015620030dd573d6000803e3d6000fd5b50505050620032f8565b6001811415620032f657600760009054906101000a900473ffffffffffffffffffffffffffffffffffffffff1673ffffffffffffffffffffffffffffffffffffffff1663084bd4e5868686866040518563ffffffff167c01000000000000000000000000000000000000000000000000000000000281526004018080602001806020018060200185151515158152602001848103845288818151815260200191508051906020019080838360005b83811015620031b257808201518184015260208101905062003195565b50505050905090810190601f168015620031e05780820380516001836020036101000a031916815260200191505b50848103835287818151815260200191508051906020019080838360005b838110156200321b578082015181840152602081019050620031fe565b50505050905090810190601f168015620032495780820380516001836020036101000a031916815260200191505b50848103825286818151815260200191508051906020019080838360005b838110156200328457808201518184015260208101905062003267565b50505050905090810190601f168015620032b25780820380516001836020036101000a031916815260200191505b50975050505050505050600060405180830381600087803b158015620032d757600080fd5b505af1158015620032ec573d6000803e3d6000fd5b50505050620032f7565b5b5b505050505050565b600554851015156200331157600080fd5b3373ffffffffffffffffffffffffffffffffffffffff166002600087815260200190815260200160002060030160009054906101000a900473ffffffffffffffffffffffffffffffffffffffff1673ffffffffffffffffffffffffffffffffffffffff161415156200338257600080fd5b60008114156200358557600660009054906101000a900473ffffffffffffffffffffffffffffffffffffffff1673ffffffffffffffffffffffffffffffffffffffff1663116b76998585856040518463ffffffff167c010000000000000000000000000000000000000000000000000000000002815260040180806020018060200180602001848103845287818151815260200191508051906020019080838360005b838110156200344257808201518184015260208101905062003425565b50505050905090810190601f168015620034705780820380516001836020036101000a031916815260200191505b50848103835286818151815260200191508051906020019080838360005b83811015620034ab5780820151818401526020810190506200348e565b50505050905090810190601f168015620034d95780820380516001836020036101000a031916815260200191505b50848103825285818151815260200191508051906020019080838360005b8381101562003514578082015181840152602081019050620034f7565b50505050905090810190601f168015620035425780820380516001836020036101000a031916815260200191505b509650505050505050600060405180830381600087803b1580156200356657600080fd5b505af11580156200357b573d6000803e3d6000fd5b505050506200378a565b60018114156200378857600760009054906101000a900473ffffffffffffffffffffffffffffffffffffffff1673ffffffffffffffffffffffffffffffffffffffff1663116b76998585856040518463ffffffff167c010000000000000000000000000000000000000000000000000000000002815260040180806020018060200180602001848103845287818151815260200191508051906020019080838360005b838110156200364557808201518184015260208101905062003628565b50505050905090810190601f168015620036735780820380516001836020036101000a031916815260200191505b50848103835286818151815260200191508051906020019080838360005b83811015620036ae57808201518184015260208101905062003691565b50505050905090810190601f168015620036dc5780820380516001836020036101000a031916815260200191505b50848103825285818151815260200191508051906020019080838360005b8381101562003717578082015181840152602081019050620036fa565b50505050905090810190601f168015620037455780820380516001836020036101000a031916815260200191505b509650505050505050600060405180830381600087803b1580156200376957600080fd5b505af11580156200377e573d6000803e3d6000fd5b5050505062003789565b5b5b5050505050565b60038054905085101515620037a557600080fd5b3373ffffffffffffffffffffffffffffffffffffffff16600386815481101515620037cc57fe5b9060005260206000200160009054906101000a900473ffffffffffffffffffffffffffffffffffffffff1673ffffffffffffffffffffffffffffffffffffffff161415156200381a57600080fd5b7fef7a41c093927e3af44f982b7d4f333157e7a7a4c693fb134c5b9407d7f1a7cd85858585856040518086815260200180602001806020018060200180602001858103855289818151815260200191508051906020019080838360005b838110156200389457808201518184015260208101905062003877565b50505050905090810190601f168015620038c25780820380516001836020036101000a031916815260200191505b50858103845288818151815260200191508051906020019080838360005b83811015620038fd578082015181840152602081019050620038e0565b50505050905090810190601f1680156200392b5780820380516001836020036101000a031916815260200191505b50858103835287818151815260200191508051906020019080838360005b838110156200396657808201518184015260208101905062003949565b50505050905090810190601f168015620039945780820380516001836020036101000a031916815260200191505b50858103825286818151815260200191508051906020019080838360005b83811015620039cf578082015181840152602081019050620039b2565b50505050905090810190601f168015620039fd5780820380516001836020036101000a031916815260200191505b50995050505050505050505060405180910390a15050505050565b7f23b719d8ad6b521ab206a7319e227d301bc64f2988b173ba65c272cb7d4b4cfa8282336040518080602001806020018473ffffffffffffffffffffffffffffffffffffffff1673ffffffffffffffffffffffffffffffffffffffff168152602001838103835286818151815260200191508051906020019080838360005b8381101562003ab457808201518184015260208101905062003a97565b50505050905090810190601f16801562003ae25780820380516001836020036101000a031916815260200191505b50838103825285818151815260200191508051906020019080838360005b8381101562003b1d57808201518184015260208101905062003b00565b50505050905090810190601f16801562003b4b5780820380516001836020036101000a031916815260200191505b509550505050505060405180910390a15050565b60006060806060806005548610151562003b7857600080fd5b6003805490508810151562003b8c57600080fd5b3373ffffffffffffffffffffffffffffffffffffffff166002600088815260200190815260200160002060030160009054906101000a900473ffffffffffffffffffffffffffffffffffffffff1673ffffffffffffffffffffffffffffffffffffffff1614151562003bfd57600080fd5b60038881548110151562003c0d57fe5b9060005260206000200160009054906101000a900473ffffffffffffffffffffffffffffffffffffffff1673ffffffffffffffffffffffffffffffffffffffff1663775a9d83886040518263ffffffff167c010000000000000000000000000000000000000000000000000000000002815260040180828152602001915050600060405180830381600087803b15801562003ca757600080fd5b505af115801562003cbc573d6000803e3d6000fd5b505050506040513d6000823e3d601f19601f8201168201806040525060a081101562003ce757600080fd5b8101908080519060200190929190805164010000000081111562003d0a57600080fd5b8281019050602081018481111562003d2157600080fd5b815185600182028301116401000000008211171562003d3f57600080fd5b5050929190602001805164010000000081111562003d5c57600080fd5b8281019050602081018481111562003d7357600080fd5b815185600182028301116401000000008211171562003d9157600080fd5b5050929190602001805164010000000081111562003dae57600080fd5b8281019050602081018481111562003dc557600080fd5b815185600182028301116401000000008211171562003de357600080fd5b5050929190602001805164010000000081111562003e0057600080fd5b8281019050602081018481111562003e1757600080fd5b815185600182028301116401000000008211171562003e3557600080fd5b505092919050505094509450945094509450939792965093509350565b6040516113628062003f1383390190565b828054600181600116156101000203166002900490600052602060002090601f016020900481019282601f1062003ea657805160ff191683800117855562003ed7565b8280016001018555821562003ed7579182015b8281111562003ed657825182559160200191906001019062003eb9565b5b50905062003ee6919062003eea565b5090565b62003f0f91905b8082111562003f0b57600081600090555060010162003ef1565b5090565b9056006080604052604051620013623803806200136283398101806040528101908080519060200190929190805182019291906020018051820192919060200180519060200190929190505050836000819055508260019080519060200190620000689291906200010e565b508160029080519060200190620000819291906200010e565b5080600360006101000a81548173ffffffffffffffffffffffffffffffffffffffff021916908373ffffffffffffffffffffffffffffffffffffffff16021790555033600460006101000a81548173ffffffffffffffffffffffffffffffffffffffff021916908373ffffffffffffffffffffffffffffffffffffffff16021790555050505050620001bd565b828054600181600116156101000203166002900490600052602060002090601f016020900481019282601f106200015157805160ff191683800117855562000182565b8280016001018555821562000182579182015b828111156200018157825182559160200191906001019062000164565b5b50905062000191919062000195565b5090565b620001ba91905b80821115620001b65760008160009055506001016200019c565b5090565b90565b61119580620001cd6000396000f30060806040526004361061006d576000357c0100000000000000000000000000000000000000000000000000000000900463ffffffff16806357d83ba31461007257806370f2a971146101ad578063775a9d83146101d8578063cc2e8cca146103c9578063cd49625f146104f8575b600080fd5b34801561007e57600080fd5b506101ab600480360381019080803590602001908201803590602001908080601f0160208091040260200160405190810160405280939291908181526020018383808284378201915050505050509192919290803590602001908201803590602001908080601f0160208091040260200160405190810160405280939291908181526020018383808284378201915050505050509192919290803590602001908201803590602001908080601f0160208091040260200160405190810160405280939291908181526020018383808284378201915050505050509192919290803590602001908201803590602001908080601f0160208091040260200160405190810160405280939291908181526020018383808284378201915050505050509192919290505050610647565b005b3480156101b957600080fd5b506101c26108ac565b6040518082815260200191505060405180910390f35b3480156101e457600080fd5b506102036004803603810190808035906020019092919050505061096a565b6040518086815260200180602001806020018060200180602001858103855289818151815260200191508051906020019080838360005b8381101561025557808201518184015260208101905061023a565b50505050905090810190601f1680156102825780820380516001836020036101000a031916815260200191505b50858103845288818151815260200191508051906020019080838360005b838110156102bb5780820151818401526020810190506102a0565b50505050905090810190601f1680156102e85780820380516001836020036101000a031916815260200191505b50858103835287818151815260200191508051906020019080838360005b83811015610321578082015181840152602081019050610306565b50505050905090810190601f16801561034e5780820380516001836020036101000a031916815260200191505b50858103825286818151815260200191508051906020019080838360005b8381101561038757808201518184015260208101905061036c565b50505050905090810190601f1680156103b45780820380516001836020036101000a031916815260200191505b50995050505050505050505060405180910390f35b3480156103d557600080fd5b506103de610d28565b6040518080602001806020018473ffffffffffffffffffffffffffffffffffffffff1673ffffffffffffffffffffffffffffffffffffffff168152602001838103835286818151815260200191508051906020019080838360005b83811015610454578082015181840152602081019050610439565b50505050905090810190601f1680156104815780820380516001836020036101000a031916815260200191505b50838103825285818151815260200191508051906020019080838360005b838110156104ba57808201518184015260208101905061049f565b50505050905090810190601f1680156104e75780820380516001836020036101000a031916815260200191505b509550505050505060405180910390f35b34801561050457600080fd5b50610631600480360381019080803590602001908201803590602001908080601f0160208091040260200160405190810160405280939291908181526020018383808284378201915050505050509192919290803590602001908201803590602001908080601f0160208091040260200160405190810160405280939291908181526020018383808284378201915050505050509192919290803590602001908201803590602001908080601f0160208091040260200160405190810160405280939291908181526020018383808284378201915050505050509192919290803590602001908201803590602001908080601f0160208091040260200160405190810160405280939291908181526020018383808284378201915050505050509192919290505050610f4b565b6040518082815260200191505060405180910390f35b600460009054906101000a900473ffffffffffffffffffffffffffffffffffffffff1673ffffffffffffffffffffffffffffffffffffffff1663d76fc2bc600054868686866040518663ffffffff167c01000000000000000000000000000000000000000000000000000000000281526004018086815260200180602001806020018060200180602001858103855289818151815260200191508051906020019080838360005b838110156107095780820151818401526020810190506106ee565b50505050905090810190601f1680156107365780820380516001836020036101000a031916815260200191505b50858103845288818151815260200191508051906020019080838360005b8381101561076f578082015181840152602081019050610754565b50505050905090810190601f16801561079c5780820380516001836020036101000a031916815260200191505b50858103835287818151815260200191508051906020019080838360005b838110156107d55780820151818401526020810190506107ba565b50505050905090810190601f1680156108025780820380516001836020036101000a031916815260200191505b50858103825286818151815260200191508051906020019080838360005b8381101561083b578082015181840152602081019050610820565b50505050905090810190601f1680156108685780820380516001836020036101000a031916815260200191505b509950505050505050505050600060405180830381600087803b15801561088e57600080fd5b505af11580156108a2573d6000803e3d6000fd5b5050505050505050565b60003373ffffffffffffffffffffffffffffffffffffffff16600360009054906101000a900473ffffffffffffffffffffffffffffffffffffffff1673ffffffffffffffffffffffffffffffffffffffff16148061095757503373ffffffffffffffffffffffffffffffffffffffff16600460009054906101000a900473ffffffffffffffffffffffffffffffffffffffff1673ffffffffffffffffffffffffffffffffffffffff16145b151561096257600080fd5b600654905090565b60006060806060806006548610151561098257600080fd5b3373ffffffffffffffffffffffffffffffffffffffff16600360009054906101000a900473ffffffffffffffffffffffffffffffffffffffff1673ffffffffffffffffffffffffffffffffffffffff161480610a2b57503373ffffffffffffffffffffffffffffffffffffffff16600460009054906101000a900473ffffffffffffffffffffffffffffffffffffffff1673ffffffffffffffffffffffffffffffffffffffff16145b1515610a3657600080fd5b60056000878152602001908152602001600020600001546005600088815260200190815260200160002060010160056000898152602001908152602001600020600201600560008a8152602001908152602001600020600301600560008b8152602001908152602001600020600401838054600181600116156101000203166002900480601f016020809104026020016040519081016040528092919081815260200182805460018160011615610100020316600290048015610b3a5780601f10610b0f57610100808354040283529160200191610b3a565b820191906000526020600020905b815481529060010190602001808311610b1d57829003601f168201915b50505050509350828054600181600116156101000203166002900480601f016020809104026020016040519081016040528092919081815260200182805460018160011615610100020316600290048015610bd65780601f10610bab57610100808354040283529160200191610bd6565b820191906000526020600020905b815481529060010190602001808311610bb957829003601f168201915b50505050509250818054600181600116156101000203166002900480601f016020809104026020016040519081016040528092919081815260200182805460018160011615610100020316600290048015610c725780601f10610c4757610100808354040283529160200191610c72565b820191906000526020600020905b815481529060010190602001808311610c5557829003601f168201915b50505050509150808054600181600116156101000203166002900480601f016020809104026020016040519081016040528092919081815260200182805460018160011615610100020316600290048015610d0e5780601f10610ce357610100808354040283529160200191610d0e565b820191906000526020600020905b815481529060010190602001808311610cf157829003601f168201915b505050505090509450945094509450945091939590929450565b60608060003373ffffffffffffffffffffffffffffffffffffffff16600360009054906101000a900473ffffffffffffffffffffffffffffffffffffffff1673ffffffffffffffffffffffffffffffffffffffff161480610dd657503373ffffffffffffffffffffffffffffffffffffffff16600460009054906101000a900473ffffffffffffffffffffffffffffffffffffffff1673ffffffffffffffffffffffffffffffffffffffff16145b1515610de157600080fd5b60016002600360009054906101000a900473ffffffffffffffffffffffffffffffffffffffff16828054600181600116156101000203166002900480601f016020809104026020016040519081016040528092919081815260200182805460018160011615610100020316600290048015610e9d5780601f10610e7257610100808354040283529160200191610e9d565b820191906000526020600020905b815481529060010190602001808311610e8057829003601f168201915b50505050509250818054600181600116156101000203166002900480601f016020809104026020016040519081016040528092919081815260200182805460018160011615610100020316600290048015610f395780601f10610f0e57610100808354040283529160200191610f39565b820191906000526020600020905b815481529060010190602001808311610f1c57829003601f168201915b50505050509150925092509250909192565b60003373ffffffffffffffffffffffffffffffffffffffff16600460009054906101000a900473ffffffffffffffffffffffffffffffffffffffff1673ffffffffffffffffffffffffffffffffffffffff16141515610fa957600080fd5b60a06040519081016040528060065481526020018681526020018581526020018481526020018381525060056000600654815260200190815260200160002060008201518160000155602082015181600101908051906020019061100e9291906110c4565b50604082015181600201908051906020019061102b9291906110c4565b5060608201518160030190805190602001906110489291906110c4565b5060808201518160040190805190602001906110659291906110c4565b509050507f6d6c7890de6244cc4a4b2eba1686287aac49412a2f6c76007d085ff9cd8701ea6006546040518082815260200191505060405180910390a16006600081548092919060010191905055506001600654039050949350505050565b828054600181600116156101000203166002900490600052602060002090601f016020900481019282601f1061110557805160ff1916838001178555611133565b82800160010185558215611133579182015b82811115611132578251825591602001919060010190611117565b5b5090506111409190611144565b5090565b61116691905b8082111561116257600081600090555060010161114a565b5090565b905600a165627a7a72305820fde59259327d25d87a47c588d0fabd76351d906fa7985ee337bcde7a26ef49dc0029a165627a7a7230582015cea0fe5d8e4620bf8d677d006dd2f6950c913e9473f1aceee2b90497dc92f60029608060405234801561001057600080fd5b50610591806100206000396000f30060806040526004361061004c576000357c0100000000000000000000000000000000000000000000000000000000900463ffffffff168063944e232914610051578063d3d6c76214610118575b600080fd5b34801561005d57600080fd5b50610116600480360381019080803560001916906020019092919080359060200190929190803590602001908201803590602001908080601f0160208091040260200160405190810160405280939291908181526020018383808284378201915050505050509192919290803590602001908201803590602001908080601f0160208091040260200160405190810160405280939291908181526020018383808284378201915050505050509192919290505050610235565b005b34801561012457600080fd5b5061014760048036038101908080356000191690602001909291905050506102e1565b604051808481526020018060200180602001838103835285818151815260200191508051906020019080838360005b83811015610191578082015181840152602081019050610176565b50505050905090810190601f1680156101be5780820380516001836020036101000a031916815260200191505b50838103825284818151815260200191508051906020019080838360005b838110156101f75780820151818401526020810190506101dc565b50505050905090810190601f1680156102245780820380516001836020036101000a031916815260200191505b509550505050505060405180910390f35b60806040519081016040528060011515815260200184815260200183815260200182815250600080866000191660001916815260200190815260200160002060008201518160000160006101000a81548160ff0219169083151502179055506020820151816001015560408201518160020190805190602001906102ba9291906104c0565b5060608201518160030190805190602001906102d79291906104c0565b5090505050505050565b600060608060011515600080866000191660001916815260200190815260200160002060000160009054906101000a900460ff16151514151561032357600080fd5b60008085600019166000191681526020019081526020016000206001015460008086600019166000191681526020019081526020016000206002016000808760001916600019168152602001908152602001600020600301818054600181600116156101000203166002900480601f0160208091040260200160405190810160405280929190818152602001828054600181600116156101000203166002900480156104105780601f106103e557610100808354040283529160200191610410565b820191906000526020600020905b8154815290600101906020018083116103f357829003601f168201915b50505050509150808054600181600116156101000203166002900480601f0160208091040260200160405190810160405280929190818152602001828054600181600116156101000203166002900480156104ac5780601f10610481576101008083540402835291602001916104ac565b820191906000526020600020905b81548152906001019060200180831161048f57829003601f168201915b505050505090509250925092509193909250565b828054600181600116156101000203166002900490600052602060002090601f016020900481019282601f1061050157805160ff191683800117855561052f565b8280016001018555821561052f579182015b8281111561052e578251825591602001919060010190610513565b5b50905061053c9190610540565b5090565b61056291905b8082111561055e576000816000905550600101610546565b5090565b905600a165627a7a72305820cebe12530120594c63097c385db670717c0acd74c0b590e4465192d0737c6308002960806040526001600255336000806101000a81548173ffffffffffffffffffffffffffffffffffffffff021916908373ffffffffffffffffffffffffffffffffffffffff160217905550610aa2806100586000396000f300608060405260043610610057576000357c0100000000000000000000000000000000000000000000000000000000900463ffffffff1680633e34e1291461005c5780634ab20a9a14610279578063b83c575b146103e8575b600080fd5b34801561006857600080fd5b5061008760048036038101908080359060200190929190505050610415565b604051808673ffffffffffffffffffffffffffffffffffffffff1673ffffffffffffffffffffffffffffffffffffffff16815260200180602001806020018060200180602001858103855289818151815260200191508051906020019080838360005b838110156101055780820151818401526020810190506100ea565b50505050905090810190601f1680156101325780820380516001836020036101000a031916815260200191505b50858103845288818151815260200191508051906020019080838360005b8381101561016b578082015181840152602081019050610150565b50505050905090810190601f1680156101985780820380516001836020036101000a031916815260200191505b50858103835287818151815260200191508051906020019080838360005b838110156101d15780820151818401526020810190506101b6565b50505050905090810190601f1680156101fe5780820380516001836020036101000a031916815260200191505b50858103825286818151815260200191508051906020019080838360005b8381101561023757808201518184015260208101905061021c565b50505050905090810190601f1680156102645780820380516001836020036101000a031916815260200191505b50995050505050505050505060405180910390f35b34801561028557600080fd5b506103d2600480360381019080803573ffffffffffffffffffffffffffffffffffffffff169060200190929190803590602001908201803590602001908080601f0160208091040260200160405190810160405280939291908181526020018383808284378201915050505050509192919290803590602001908201803590602001908080601f0160208091040260200160405190810160405280939291908181526020018383808284378201915050505050509192919290803590602001908201803590602001908080601f0160208091040260200160405190810160405280939291908181526020018383808284378201915050505050509192919290803590602001908201803590602001908080601f0160208091040260200160405190810160405280939291908181526020018383808284378201915050505050509192919290505050610765565b6040518082815260200191505060405180910390f35b3480156103f457600080fd5b5061041360048036038101908080359060200190929190505050610931565b005b6000606080606080600115156001600088815260200190815260200160002060000160009054906101000a900460ff16151514151561045357600080fd5b6001600087815260200190815260200160002060020160009054906101000a900473ffffffffffffffffffffffffffffffffffffffff166001600088815260200190815260200160002060030160016000898152602001908152602001600020600401600160008a8152602001908152602001600020600501600160008b8152602001908152602001600020600601838054600181600116156101000203166002900480601f0160208091040260200160405190810160405280929190818152602001828054600181600116156101000203166002900480156105775780601f1061054c57610100808354040283529160200191610577565b820191906000526020600020905b81548152906001019060200180831161055a57829003601f168201915b50505050509350828054600181600116156101000203166002900480601f0160208091040260200160405190810160405280929190818152602001828054600181600116156101000203166002900480156106135780601f106105e857610100808354040283529160200191610613565b820191906000526020600020905b8154815290600101906020018083116105f657829003601f168201915b50505050509250818054600181600116156101000203166002900480601f0160208091040260200160405190810160405280929190818152602001828054600181600116156101000203166002900480156106af5780601f10610684576101008083540402835291602001916106af565b820191906000526020600020905b81548152906001019060200180831161069257829003601f168201915b50505050509150808054600181600116156101000203166002900480601f01602080910402602001604051908101604052809291908181526020018280546001816001161561010002031660029004801561074b5780601f106107205761010080835404028352916020019161074b565b820191906000526020600020905b81548152906001019060200180831161072e57829003601f168201915b505050505090509450945094509450945091939590929450565b60003373ffffffffffffffffffffffffffffffffffffffff166000809054906101000a900473ffffffffffffffffffffffffffffffffffffffff1673ffffffffffffffffffffffffffffffffffffffff161415156107c257600080fd5b60e06040519081016040528060011515815260200160025481526020018773ffffffffffffffffffffffffffffffffffffffff1681526020018681526020018581526020018481526020018381525060016000600254815260200190815260200160002060008201518160000160006101000a81548160ff0219169083151502179055506020820151816001015560408201518160020160006101000a81548173ffffffffffffffffffffffffffffffffffffffff021916908373ffffffffffffffffffffffffffffffffffffffff16021790555060608201518160030190805190602001906108b39291906109d1565b5060808201518160040190805190602001906108d09291906109d1565b5060a08201518160050190805190602001906108ed9291906109d1565b5060c082015181600601908051906020019061090a9291906109d1565b50905050600260008154809291906001019190505550600160025403905095945050505050565b3373ffffffffffffffffffffffffffffffffffffffff166000809054906101000a900473ffffffffffffffffffffffffffffffffffffffff1673ffffffffffffffffffffffffffffffffffffffff1614151561098c57600080fd5b600254811115151561099d57600080fd5b600060016000600254815260200190815260200160002060000160006101000a81548160ff02191690831515021790555050565b828054600181600116156101000203166002900490600052602060002090601f016020900481019282601f10610a1257805160ff1916838001178555610a40565b82800160010185558215610a40579182015b82811115610a3f578251825591602001919060010190610a24565b5b509050610a4d9190610a51565b5090565b610a7391905b80821115610a6f576000816000905550600101610a57565b5090565b905600a165627a7a723058206906305bdd1f0de1e9663478cb084a524729142c367e890bb4fa30ff5a3450b400296080604052336000806101000a81548173ffffffffffffffffffffffffffffffffffffffff021916908373ffffffffffffffffffffffffffffffffffffffff16021790555061212b806100536000396000f30060806040526004361061006d576000357c0100000000000000000000000000000000000000000000000000000000900463ffffffff168063084bd4e514610072578063116b7699146101735780636a3138c71461026857806379f4562b1461039057806396ccac7314610472575b600080fd5b34801561007e57600080fd5b50610171600480360381019080803590602001908201803590602001908080601f0160208091040260200160405190810160405280939291908181526020018383808284378201915050505050509192919290803590602001908201803590602001908080601f0160208091040260200160405190810160405280939291908181526020018383808284378201915050505050509192919290803590602001908201803590602001908080601f01602080910402602001604051908101604052809392919081815260200183838082843782019150505050505091929192908035151590602001909291905050506104db565b005b34801561017f57600080fd5b50610266600480360381019080803590602001908201803590602001908080601f0160208091040260200160405190810160405280939291908181526020018383808284378201915050505050509192919290803590602001908201803590602001908080601f0160208091040260200160405190810160405280939291908181526020018383808284378201915050505050509192919290803590602001908201803590602001908080601f0160208091040260200160405190810160405280939291908181526020018383808284378201915050505050509192919290505050610e2b565b005b34801561027457600080fd5b50610315600480360381019080803590602001908201803590602001908080601f0160208091040260200160405190810160405280939291908181526020018383808284378201915050505050509192919290803590602001908201803590602001908080601f016020809104026020016040519081016040528093929190818152602001838380828437820191505050505050919291929050505061122d565b6040518080602001828103825283818151815260200191508051906020019080838360005b8381101561035557808201518184015260208101905061033a565b50505050905090810190601f1680156103825780820380516001836020036101000a031916815260200191505b509250505060405180910390f35b34801561039c57600080fd5b506103f7600480360381019080803590602001908201803590602001908080601f0160208091040260200160405190810160405280939291908181526020018383808284378201915050505050509192919290505050611532565b6040518080602001828103825283818151815260200191508051906020019080838360005b8381101561043757808201518184015260208101905061041c565b50505050905090810190601f1680156104645780820380516001836020036101000a031916815260200191505b509250505060405180910390f35b34801561047e57600080fd5b506104d9600480360381019080803590602001908201803590602001908080601f0160208091040260200160405190810160405280939291908181526020018383808284378201915050505050509192919290505050611af4565b005b6104e3611ff9565b60003373ffffffffffffffffffffffffffffffffffffffff166000809054906101000a900473ffffffffffffffffffffffffffffffffffffffff1673ffffffffffffffffffffffffffffffffffffffff1614151561054057600080fd5b600115156001876040518082805190602001908083835b60208310151561057c5780518252602082019150602081019050602083039250610557565b6001836020036101000a038019825116818451168082178552505050505050905001915050908152602001604051809103902060000160009054906101000a900460ff1615151415156105ce57600080fd5b6107496001876040518082805190602001908083835b60208310151561060957805182526020820191506020810190506020830392506105e4565b6001836020036101000a0380198251168184511680821785525050505050509050019150509081526020016040518091039020600101866040518082805190602001908083835b6020831015156106755780518252602082019150602081019050602083039250610650565b6001836020036101000a03801982511681845116808217855250505050505090500191505090815260200160405180910390206003018054600181600116156101000203166002900480601f01602080910402602001604051908101604052809291908181526020018280546001816001161561010002031660029004801561073f5780601f106107145761010080835404028352916020019161073f565b820191906000526020600020905b81548152906001019060200180831161072257829003601f168201915b5050505050611cd1565b15610af95760806040519081016040528084151581526020016001886040518082805190602001908083835b60208310151561079a5780518252602082019150602081019050602083039250610775565b6001836020036101000a0380198251168184511680821785525050505050509050019150509081526020016040518091039020600301548152602001868152602001858152509150816001876040518082805190602001908083835b60208310151561081b57805182526020820191506020810190506020830392506107f6565b6001836020036101000a0380198251168184511680821785525050505050509050019150509081526020016040518091039020600101866040518082805190602001908083835b6020831015156108875780518252602082019150602081019050602083039250610862565b6001836020036101000a038019825116818451168082178552505050505050905001915050908152602001604051809103902060008201518160000160006101000a81548160ff021916908315150217905550602082015181600101556040820151816002019080519060200190610900929190612024565b50606082015181600301908051906020019061091d929190612024565b50905050816001876040518082805190602001908083835b60208310151561095a5780518252602082019150602081019050602083039250610935565b6001836020036101000a038019825116818451168082178552505050505050905001915050908152602001604051809103902060020160006001896040518082805190602001908083835b6020831015156109ca57805182526020820191506020810190506020830392506109a5565b6001836020036101000a038019825116818451168082178552505050505050905001915050908152602001604051809103902060030154815260200190815260200160002060008201518160000160006101000a81548160ff021916908315150217905550602082015181600101556040820151816002019080519060200190610a55929190612024565b506060820151816003019080519060200190610a72929190612024565b509050506001866040518082805190602001908083835b602083101515610aae5780518252602082019150602081019050602083039250610a89565b6001836020036101000a038019825116818451168082178552505050505050905001915050908152602001604051809103902060030160008154809291906001019190505550610e23565b6001866040518082805190602001908083835b602083101515610b315780518252602082019150602081019050602083039250610b0c565b6001836020036101000a0380198251168184511680821785525050505050509050019150509081526020016040518091039020600101856040518082805190602001908083835b602083101515610b9d5780518252602082019150602081019050602083039250610b78565b6001836020036101000a03801982511681845116808217855250505050505090500191505090815260200160405180910390206001015490506080604051908101604052808415158152602001828152602001868152602001858152509150816001876040518082805190602001908083835b602083101515610c355780518252602082019150602081019050602083039250610c10565b6001836020036101000a0380198251168184511680821785525050505050509050019150509081526020016040518091039020600101866040518082805190602001908083835b602083101515610ca15780518252602082019150602081019050602083039250610c7c565b6001836020036101000a038019825116818451168082178552505050505050905001915050908152602001604051809103902060008201518160000160006101000a81548160ff021916908315150217905550602082015181600101556040820151816002019080519060200190610d1a929190612024565b506060820151816003019080519060200190610d37929190612024565b50905050816001876040518082805190602001908083835b602083101515610d745780518252602082019150602081019050602083039250610d4f565b6001836020036101000a0380198251168184511680821785525050505050509050019150509081526020016040518091039020600201600083815260200190815260200160002060008201518160000160006101000a81548160ff021916908315150217905550602082015181600101556040820151816002019080519060200190610e01929190612024565b506060820151816003019080519060200190610e1e929190612024565b509050505b505050505050565b610e33611ff9565b610e3b6120a4565b3373ffffffffffffffffffffffffffffffffffffffff166000809054906101000a900473ffffffffffffffffffffffffffffffffffffffff1673ffffffffffffffffffffffffffffffffffffffff16141515610e9657600080fd5b600015156001866040518082805190602001908083835b602083101515610ed25780518252602082019150602081019050602083039250610ead565b6001836020036101000a038019825116818451168082178552505050505050905001915050908152602001604051809103902060000160009054906101000a900460ff161515141515610f2457600080fd5b60806040519081016040528060011515815260200160008152602001858152602001848152509150604080519081016040528060011515815260200160018152509050806001866040518082805190602001908083835b602083101515610fa05780518252602082019150602081019050602083039250610f7b565b6001836020036101000a038019825116818451168082178552505050505050905001915050908152602001604051809103902060008201518160000160006101000a81548160ff02191690831515021790555060208201518160030155905050816001866040518082805190602001908083835b6020831015156110395780518252602082019150602081019050602083039250611014565b6001836020036101000a0380198251168184511680821785525050505050509050019150509081526020016040518091039020600101856040518082805190602001908083835b6020831015156110a55780518252602082019150602081019050602083039250611080565b6001836020036101000a038019825116818451168082178552505050505050905001915050908152602001604051809103902060008201518160000160006101000a81548160ff02191690831515021790555060208201518160010155604082015181600201908051906020019061111e929190612024565b50606082015181600301908051906020019061113b929190612024565b50905050816001866040518082805190602001908083835b6020831015156111785780518252602082019150602081019050602083039250611153565b6001836020036101000a0380198251168184511680821785525050505050509050019150509081526020016040518091039020600201600080815260200190815260200160002060008201518160000160006101000a81548160ff021916908315150217905550602082015181600101556040820151816002019080519060200190611205929190612024565b506060820151816003019080519060200190611222929190612024565b509050505050505050565b6060600115156001846040518082805190602001908083835b60208310151561126b5780518252602082019150602081019050602083039250611246565b6001836020036101000a038019825116818451168082178552505050505050905001915050908152602001604051809103902060000160009054906101000a900460ff1615151415156112bd57600080fd5b600115156001846040518082805190602001908083835b6020831015156112f957805182526020820191506020810190506020830392506112d4565b6001836020036101000a0380198251168184511680821785525050505050509050019150509081526020016040518091039020600101836040518082805190602001908083835b6020831015156113655780518252602082019150602081019050602083039250611340565b6001836020036101000a038019825116818451168082178552505050505050905001915050908152602001604051809103902060000160009054906101000a900460ff1615151415156113b757600080fd5b6001836040518082805190602001908083835b6020831015156113ef57805182526020820191506020810190506020830392506113ca565b6001836020036101000a0380198251168184511680821785525050505050509050019150509081526020016040518091039020600101826040518082805190602001908083835b60208310151561145b5780518252602082019150602081019050602083039250611436565b6001836020036101000a03801982511681845116808217855250505050505090500191505090815260200160405180910390206003018054600181600116156101000203166002900480601f0160208091040260200160405190810160405280929190818152602001828054600181600116156101000203166002900480156115255780601f106114fa57610100808354040283529160200191611525565b820191906000526020600020905b81548152906001019060200180831161150857829003601f168201915b5050505050905092915050565b606060006060600080600115156001876040518082805190602001908083835b6020831015156115775780518252602082019150602081019050602083039250611552565b6001836020036101000a038019825116818451168082178552505050505050905001915050908152602001604051809103902060000160009054906101000a900460ff1615151415156115c957600080fd5b6115d286611dbf565b93506040805190810160405280600281526020017f7b220000000000000000000000000000000000000000000000000000000000008152509250600084141561161d57829450611aeb565b60009150600090505b6001866040518082805190602001908083835b60208310151561165e5780518252602082019150602081019050602083039250611639565b6001836020036101000a038019825116818451168082178552505050505050905001915050908152602001604051809103902060030154811015611a8d57600115156001876040518082805190602001908083835b6020831015156116d857805182526020820191506020810190506020830392506116b3565b6001836020036101000a0380198251168184511680821785525050505050509050019150509081526020016040518091039020600201600083815260200190815260200160002060000160009054906101000a900460ff1615151415611a805761187561185e6001886040518082805190602001908083835b6020831015156117765780518252602082019150602081019050602083039250611751565b6001836020036101000a038019825116818451168082178552505050505050905001915050908152602001604051809103902060020160008481526020019081526020016000206002018054600181600116156101000203166002900480601f0160208091040260200160405190810160405280929190818152602001828054600181600116156101000203166002900480156118545780601f1061182957610100808354040283529160200191611854565b820191906000526020600020905b81548152906001019060200180831161183757829003601f168201915b5050505050611efe565b61186785611efe565b611f2c90919063ffffffff16565b92506118cf6118b86040805190810160405280600281526020017f223a000000000000000000000000000000000000000000000000000000000000815250611efe565b6118c185611efe565b611f2c90919063ffffffff16565b9250611a0e6119f76001886040518082805190602001908083835b60208310151561190f57805182526020820191506020810190506020830392506118ea565b6001836020036101000a038019825116818451168082178552505050505050905001915050908152602001604051809103902060020160008481526020019081526020016000206003018054600181600116156101000203166002900480601f0160208091040260200160405190810160405280929190818152602001828054600181600116156101000203166002900480156119ed5780601f106119c2576101008083540402835291602001916119ed565b820191906000526020600020905b8154815290600101906020018083116119d057829003601f168201915b5050505050611efe565b611a0085611efe565b611f2c90919063ffffffff16565b9250818060010192505083821415611a2557611a8d565b611a7d611a666040805190810160405280600181526020017f2c00000000000000000000000000000000000000000000000000000000000000815250611efe565b611a6f85611efe565b611f2c90919063ffffffff16565b92505b8080600101915050611626565b611ae5611ace6040805190810160405280600181526020017f7d00000000000000000000000000000000000000000000000000000000000000815250611efe565b611ad785611efe565b611f2c90919063ffffffff16565b92508294505b50505050919050565b3373ffffffffffffffffffffffffffffffffffffffff166000809054906101000a900473ffffffffffffffffffffffffffffffffffffffff1673ffffffffffffffffffffffffffffffffffffffff16141515611b4f57600080fd5b60006001826040518082805190602001908083835b602083101515611b895780518252602082019150602081019050602083039250611b64565b6001836020036101000a038019825116818451168082178552505050505050905001915050908152602001604051809103902060030154111515611bcc57600080fd5b6001816040518082805190602001908083835b602083101515611c045780518252602082019150602081019050602083039250611bdf565b6001836020036101000a038019825116818451168082178552505050505050905001915050908152602001604051809103902060000160009054906101000a900460ff16156001826040518082805190602001908083835b602083101515611c815780518252602082019150602081019050602083039250611c5c565b6001836020036101000a038019825116818451168082178552505050505050905001915050908152602001604051809103902060000160006101000a81548160ff02191690831515021790555050565b6000606060206040519081016040528060008152509050806040518082805190602001908083835b602083101515611d1e5780518252602082019150602081019050602083039250611cf9565b6001836020036101000a038019825116818451168082178552505050505050905001915050604051809103902060001916836040518082805190602001908083835b602083101515611d855780518252602082019150602081019050602083039250611d60565b6001836020036101000a03801982511681845116808217855250505050505090500191505060405180910390206000191614915050919050565b6000806000809150600090505b6001846040518082805190602001908083835b602083101515611e045780518252602082019150602081019050602083039250611ddf565b6001836020036101000a038019825116818451168082178552505050505050905001915050908152602001604051809103902060030154811015611ef457600115156001856040518082805190602001908083835b602083101515611e7e5780518252602082019150602081019050602083039250611e59565b6001836020036101000a0380198251168184511680821785525050505050509050019150509081526020016040518091039020600201600083815260200190815260200160002060000160009054906101000a900460ff1615151415611ee75781806001019250505b8080600101915050611dcc565b8192505050919050565b611f066120c0565b600060208301905060408051908101604052808451815260200182815250915050919050565b606080600083600001518560000151016040519080825280601f01601f191660200182016040528015611f6e5781602001602082028038833980820191505090505b509150602082019050611f8a8186602001518760000151611fae565b611fa38560000151820185602001518660000151611fae565b819250505092915050565b60005b602082101515611fd65782518452602084019350602083019250602082039150611fb1565b6001826020036101000a0390508019835116818551168181178652505050505050565b6080604051908101604052806000151581526020016000815260200160608152602001606081525090565b828054600181600116156101000203166002900490600052602060002090601f016020900481019282601f1061206557805160ff1916838001178555612093565b82800160010185558215612093579182015b82811115612092578251825591602001919060010190612077565b5b5090506120a091906120da565b5090565b6040805190810160405280600015158152602001600081525090565b604080519081016040528060008152602001600081525090565b6120fc91905b808211156120f85760008160009055506001016120e0565b5090565b905600a165627a7a72305820b77cfb1e34e618a713d72a9700406adf6d2550cd90734771a7f9b65d33c3a3390029",
  "source": "pragma solidity ^0.4.0;\n\nimport \"./InternalGatewayDevice.sol\";\nimport \"./GetPermission.sol\";\nimport \"./HashedData.sol\";\nimport \"./Certificate.sol\";\ncontract Root {\n    //root account\n    address private Owner;\n    string private PublicKey;\n    \n    struct AuthorizedAccountTier1 {\n        uint Id;\n        string PublicKey;\n        string DeviceName;\n        address Address;\n    }\n    \n    //accounts with next tier access which have major control on the blockchain\n    //these accounts can register new devices to the blockchain, but cannot add\n    //other account. This can only be done through the owner\n    mapping(uint => AuthorizedAccountTier1) private AuthorizedAccountsTier1;\n    InternalGatewayDevice[] private InternalGatewayDevices;//might need to be changed to mapping\n    mapping(address => uint) private CertificatesMapping;\n    uint private TierOneAccountsCount;\n    \n    //Initialise GetPermission contracts\n    //Command: 0 -> Read\n    //Command: 1 -> Write\n    GetPermission private Read;\n    GetPermission private Write;\n\n    HashedData public GlobalData;\n    Certificate private Certificates;\n    \n    //events that allows listeners to dynamically react to changes\n    event RequestedToJoinGateway(\n        uint _id, string _deviceName, string _mac, string _publicKey, string _data);\n    event RequestedToJoinAsGateway(\n        string _publicKey, string _data, address _owner);\n    event InternalGatewayAdded(uint _senderId, string _publicKey, string _data, \n        address _owner, uint _gatewayId);\n    event TierOneAccountAdded(string _publicKey, string _deviceName, address _address, uint _id);\n    event NodeAddedToGateway(uint _senderId, uint _deviceId, string _deviceName, \n        string _mac, string _publicKey, string _data, uint _nodeId, address _owner);\n    \n    constructor(string _publicKey) public payable {\n        //executed once to whoever first called this contract is now the owner\n        Owner = msg.sender;\n        PublicKey = _publicKey;\n        //Initialise Read and Write\n        Read = GetPermission(CreateReadContract());//new GetPermission();\n        Write = GetPermission(CreateWriteContract());//new GetPermission();\n        //Initialise Global data\n        GlobalData = new HashedData();\n        //Initialise Certificate contract\n        Certificates = new Certificate();\n        //add itself to the authorized accounts\n        AddTierOneAccount(PublicKey, \"Root\", Owner);\n    }\n\n    function CreateReadContract() private returns(address) {\n        GetPermission readContract = new GetPermission();\n        return readContract;\n    }\n\n    function CreateWriteContract() private returns(address) {\n        GetPermission writeContract = new GetPermission();\n        return writeContract;\n    }\n\n    //Can be called by any entity\n    //returns the address of the read permission contract\n    function GetReadAddress() public constant returns (address) {\n        return address(Read);\n    }\n    \n    //Can be called by any entity\n    //returns the address of the write permission contract\n    function GetWriteAddress() public constant returns (address) {\n        return address(Write);\n    }\n\n    //Can be called by any entity\n    //returns the address of the Global data contract\n    function GetGlobalDataAddress() public constant returns (address) {\n        return address(GlobalData);\n    }\n\n    //Can be called by any entity\n    //returns the address of the Certificate contract\n    function GetCertificateAddress() public constant returns (address) {\n        return address(Certificates);\n    }\n\n    //Can be called by anyone\n    //returns the certificate id belonging to the entity that called this method\n    function GetCertificateId() public constant returns (uint) {\n        require(CertificatesMapping[msg.sender] != 0);\n        return CertificatesMapping[msg.sender];\n    }\n    \n    //can only be executed by an authorized account\n    //_command specifies on what the switch should be done ex. whether read or write\n    //Changes the activity of a permission\n    function SwitchActiveDevice(uint _senderId, string _nodePublicKey, uint _command ) public {\n        require(_senderId < TierOneAccountsCount);\n        require(AuthorizedAccountsTier1[_senderId].Address == msg.sender);\n        if (_command == 0) { Read.SwitchActiveDevice(_nodePublicKey); }\n        else if (_command == 1) {Write.SwitchActiveDevice(_nodePublicKey); }\n        else { \n            //More commands might be added in the future \n        }\n    }\n    \n    //can only be executed by an authorized account\n    //Adds a new permission depending on the _command input\n    function AddPermission(uint _senderId, string _nodePublicKey,string _targetPublicKey,\n        string _data, uint _command) public {\n        require(_senderId < TierOneAccountsCount);\n        require(AuthorizedAccountsTier1[_senderId].Address == msg.sender);\n        if (_command == 0) { Read.AddPermission(_nodePublicKey, _targetPublicKey, _data); }\n        else if (_command == 1) { Write.AddPermission(_nodePublicKey, _targetPublicKey, _data); }\n        else {\n            //More commands might be added in the future \n        }\n    }\n    \n    //can only be executed by an authorized account\n    //Update a current permission by adding a new device to the permission or\n    //updating the data of an existing device that exists within that permission\n    function UpdatePermission(uint _senderId, string _nodePublicKey,string _targetPublicKey, \n        string _data, bool _active, uint _command) public {\n        require(_senderId < TierOneAccountsCount);\n        require(AuthorizedAccountsTier1[_senderId].Address == msg.sender);\n        if (_command == 0) { Read.UpdatePermission(_nodePublicKey, _targetPublicKey, _data, _active); }\n        else if (_command == 1) { Write.UpdatePermission(_nodePublicKey, _targetPublicKey, _data, _active); }\n        else {\n            //More commands might be added in the future \n        }\n    }\n\n    //Adds a new Certificate\n    function AddCertificate(uint _senderId, string PublicKey, string DeviceName, \n        string MAC, string ArbitraryData, address CertHolder) public {\n        require(_senderId < TierOneAccountsCount);\n        require(AuthorizedAccountsTier1[_senderId].Address == msg.sender);\n        uint CertId = Certificates.AddCertificate(msg.sender, PublicKey, DeviceName, MAC, ArbitraryData);\n        CertificatesMapping[CertHolder] = CertId;\n    }\n\n    //Disables a Certificate\n    function DisableCertificate(uint _senderId, uint CertificateId) public {\n        require(_senderId < TierOneAccountsCount);\n        require(AuthorizedAccountsTier1[_senderId].Address == msg.sender);\n        Certificates.DeActivateCertificate(CertificateId);\n    }\n    \n    //Takes an Id and returns the details of the device that exists within the blockchain\n    //Only authorized accounts can access this method, and only valid id can be accessed\n    //and returned back\n    function GetAccountDetails(uint _id, uint _senderId) public constant returns (uint, string, string, address){\n        require(_id < TierOneAccountsCount);\n        require(_senderId < TierOneAccountsCount);\n        require(AuthorizedAccountsTier1[_senderId].Address == msg.sender);\n        return (AuthorizedAccountsTier1[_id].Id, \n            AuthorizedAccountsTier1[_id].PublicKey, \n            AuthorizedAccountsTier1[_id].DeviceName, \n            AuthorizedAccountsTier1[_id].Address);\n    }\n    \n    //Owner adds a device to the blockchain with all the required information\n    //The device can now access data on the blockchain depending on its level\n    //of authorization\n    function AddTierOneAccount(string _publicKey, string _deviceName, address _address) public returns (uint){\n        require(Owner == msg.sender);\n        AuthorizedAccountsTier1[TierOneAccountsCount] = AuthorizedAccountTier1(\n            TierOneAccountsCount, _publicKey, _deviceName, _address);\n        TierOneAccountsCount++;\n        emit TierOneAccountAdded(_publicKey, _deviceName, _address, TierOneAccountsCount - 1);\n        return TierOneAccountsCount - 1;\n    }\n    \n    //Can only be done by an authorized account\n    //Adds a new device that is reponsible for handling nodes not connected to the blockchain\n    function AddInternalGateway(uint _senderId, string _publicKey, string _data, address _owner) public returns (uint){\n        require(_senderId < TierOneAccountsCount);\n        require(AuthorizedAccountsTier1[_senderId].Address == msg.sender);\n        InternalGatewayDevice device = new InternalGatewayDevice(InternalGatewayDevices.length,\n                                            _publicKey,\n                                            _data,\n                                            _owner);\n        InternalGatewayDevices.push(device);\n        emit InternalGatewayAdded(_senderId, _publicKey, _data, _owner, InternalGatewayDevices.length - 1);\n        return InternalGatewayDevices.length - 1;\n    }\n    \n    //Can only be done through an authorized account\n    //takes a specfic internal gateway and adds a new device that is not connected to the blockchain to it\n    function AddNodeToGateway(uint _senderId, uint _deviceId, string _deviceName, \n        string _mac, string _publicKey, string _data) public returns (uint){\n        require(_senderId < TierOneAccountsCount);\n        require(_deviceId < InternalGatewayDevices.length);\n        require(AuthorizedAccountsTier1[_senderId].Address == msg.sender);\n        uint NodeId = InternalGatewayDevices[_deviceId].AddNode(_deviceName, _mac, _publicKey, _data);\n        emit NodeAddedToGateway(_senderId, _deviceId, _deviceName, _mac, _publicKey, _data, NodeId, address(InternalGatewayDevices[_deviceId]));\n        return NodeId;\n    }\n    \n    //Can only be done by an authorized account\n    //Gets the details of a specific gateway that exists in the blockchain\n    function GetGatewayDetails(uint _id, uint _senderId) public constant returns (string, string, address) {\n        require(_senderId < TierOneAccountsCount);\n        require(_id < InternalGatewayDevices.length);\n        require(AuthorizedAccountsTier1[_senderId].Address == msg.sender);\n        return InternalGatewayDevices[_id].GetDetails();\n    }\n\n    function GetGatewayNodeDetails(uint _id, uint _nodeId, uint _senderId) public constant returns (uint, string, string, string, string) {\n        require(_senderId < TierOneAccountsCount);\n        require(_id < InternalGatewayDevices.length);\n        require(AuthorizedAccountsTier1[_senderId].Address == msg.sender);\n        return InternalGatewayDevices[_id].GetNodeDetails(_nodeId);\n    }\n\n    //return number of Gateways\n    function GatewaysCount(uint _senderId) public constant returns (uint) {\n        require(_senderId < TierOneAccountsCount);\n        require(AuthorizedAccountsTier1[_senderId].Address == msg.sender);\n        return InternalGatewayDevices.length;\n    }\n\n    //Get number of nodes in a gateway\n    function GatwayNodeCount(uint _id, uint _senderId) public constant returns (uint) {\n        require(_senderId < TierOneAccountsCount);\n        require(AuthorizedAccountsTier1[_senderId].Address == msg.sender);\n        require(_id < InternalGatewayDevices.length);\n        return InternalGatewayDevices[_id].GetNodeCount();\n    }\n\n    //Number of Tier one accounts\n    function TierOneCount() public constant returns (uint) {\n        require(Owner == msg.sender);\n        return TierOneAccountsCount;\n    }\n    \n    //can only be done by an InternalGatewayDevice and must always refer to itself or\n    //function will be rejected. Sends an event that a node want to be added\n    function RequestToJoinGateway(uint _id, string _deviceName, string _mac, string _publicKey, string _data) public{\n        require(_id < InternalGatewayDevices.length);\n        require(address(InternalGatewayDevices[_id]) == msg.sender);\n        emit RequestedToJoinGateway(_id, _deviceName, _mac, _publicKey, _data);\n    }\n    \n    //Outer devices can use this method to request to join the network\n    function RequestToJoinAsGateway(string _publicKey, string _data) public{\n        emit RequestedToJoinAsGateway(_publicKey, _data, msg.sender);\n    }\n}",
  "sourcePath": "/home/kamal/Desktop/Blockchain-powered-IOT-network/DAPP/contracts/Root.sol",
  "compiler": {
    "name": "solc",
    "version": "0.4.24+commit.e67f0147.Emscripten.clang"
  },
  "schemaVersion": "2.0.1",
  "updatedAt": "2018-07-23T17:41:09.204Z"
}